{"contracts/x402PaymentRouter.sol":{"x402PaymentRouter":{"abi":[{"inputs":[{"internalType":"address","name":"usdcToken","type":"address"},{"internalType":"address","name":"agentRegistryAddress","type":"address"},{"internalType":"address","name":"skillsRegistryAddress","type":"address"},{"internalType":"address","name":"leaderboardTrackerAddress","type":"address"}],"stateMutability":"nonpayable","type":"constructor"},{"anonymous":false,"inputs":[{"indexed":true,"internalType":"uint256","name":"receiptId","type":"uint256"}],"name":"SkillCompleted","type":"event"},{"anonymous":false,"inputs":[{"indexed":true,"internalType":"uint256","name":"receiptId","type":"uint256"},{"indexed":true,"internalType":"uint256","name":"agentId","type":"uint256"},{"indexed":true,"internalType":"uint256","name":"skillId","type":"uint256"},{"indexed":false,"internalType":"address","name":"provider","type":"address"},{"indexed":false,"internalType":"uint256","name":"amount","type":"uint256"}],"name":"SkillHired","type":"event"},{"inputs":[],"name":"agentRegistry","outputs":[{"internalType":"contract IAgentRegistry","name":"","type":"address"}],"stateMutability":"view","type":"function"},{"inputs":[{"internalType":"uint256","name":"receiptId","type":"uint256"}],"name":"getReceipt","outputs":[{"internalType":"uint256","name":"agentId","type":"uint256"},{"internalType":"uint256","name":"skillId","type":"uint256"},{"internalType":"uint256","name":"amount","type":"uint256"},{"internalType":"uint256","name":"timestamp","type":"uint256"},{"internalType":"bool","name":"completed","type":"bool"}],"stateMutability":"view","type":"function"},{"inputs":[{"internalType":"uint256","name":"agentId","type":"uint256"},{"internalType":"uint256","name":"skillId","type":"uint256"}],"name":"hireSkill","outputs":[{"internalType":"uint256","name":"receiptId","type":"uint256"}],"stateMutability":"nonpayable","type":"function"},{"inputs":[],"name":"leaderboardTracker","outputs":[{"internalType":"contract ILeaderboardTracker","name":"","type":"address"}],"stateMutability":"view","type":"function"},{"inputs":[{"internalType":"uint256","name":"receiptId","type":"uint256"}],"name":"markCompleted","outputs":[],"stateMutability":"nonpayable","type":"function"},{"inputs":[],"name":"receiptCount","outputs":[{"internalType":"uint256","name":"","type":"uint256"}],"stateMutability":"view","type":"function"},{"inputs":[{"internalType":"uint256","name":"","type":"uint256"}],"name":"receipts","outputs":[{"internalType":"uint256","name":"agentId","type":"uint256"},{"internalType":"uint256","name":"skillId","type":"uint256"},{"internalType":"uint256","name":"amount","type":"uint256"},{"internalType":"uint256","name":"timestamp","type":"uint256"},{"internalType":"bool","name":"completed","type":"bool"}],"stateMutability":"view","type":"function"},{"inputs":[],"name":"skillsRegistry","outputs":[{"internalType":"contract ISkillsRegistry","name":"","type":"address"}],"stateMutability":"view","type":"function"},{"inputs":[],"name":"usdc","outputs":[{"internalType":"contract IERC20","name":"","type":"address"}],"stateMutability":"view","type":"function"}],"evm":{"bytecode":{"linkReferences":{},"object":"6101006040523480156200001257600080fd5b5060405162000eca38038062000eca833981016040819052620000359162000210565b6001600160a01b038416620000915760405162461bcd60e51b815260206004820181905260248201527f783430325061796d656e74526f757465723a205553444320726571756972656460448201526064015b60405180910390fd5b6001600160a01b038316620000fc5760405162461bcd60e51b815260206004820152602a60248201527f783430325061796d656e74526f757465723a206167656e7420726567697374726044820152691e481c995c5d5a5c995960b21b606482015260840162000088565b6001600160a01b038216620001685760405162461bcd60e51b815260206004820152602b60248201527f783430325061796d656e74526f757465723a20736b696c6c732072656769737460448201526a1c9e481c995c5d5a5c995960aa1b606482015260840162000088565b6001600160a01b038116620001d05760405162461bcd60e51b815260206004820152602760248201527f783430325061796d656e74526f757465723a206c6561646572626f6172642072604482015266195c5d5a5c995960ca1b606482015260840162000088565b6001600160a01b0393841660805291831660a052821660c0521660e0526200026d565b80516001600160a01b03811681146200020b57600080fd5b919050565b600080600080608085870312156200022757600080fd5b6200023285620001f3565b93506200024260208601620001f3565b92506200025260408601620001f3565b91506200026260608601620001f3565b905092959194509250565b60805160a05160c05160e051610bfa620002d0600039600081816101af015261092d0152600081816101880152818161032b0152818161057801526108a7015260008181609d015261047601526000818161014a01526107480152610bfa6000f3fe608060405234801561001057600080fd5b50600436106100935760003560e01c80638001e9cd116100665780638001e9cd1461018357806388efbc97146101aa578063b63e6ac3146101d1578063cac5c512146101e4578063d78bb0c7146101f957600080fd5b80630d1cfcae146100985780630f7ee1ec146100dc5780633e413bee146101455780637f038f3c1461016c575b600080fd5b6100bf7f000000000000000000000000000000000000000000000000000000000000000081565b6040516001600160a01b0390911681526020015b60405180910390f35b61011b6100ea3660046109e5565b6001602081905260009182526040909120805491810154600282015460038301546004909301549192909160ff1685565b6040805195865260208601949094529284019190915260608301521515608082015260a0016100d3565b6100bf7f000000000000000000000000000000000000000000000000000000000000000081565b61017560005481565b6040519081526020016100d3565b6100bf7f000000000000000000000000000000000000000000000000000000000000000081565b6100bf7f000000000000000000000000000000000000000000000000000000000000000081565b61011b6101df3660046109e5565b61020c565b6101f76101f23660046109e5565b610279565b005b6101756102073660046109fe565b610453565b600081815260016020526040812060038101548291829182918291820361024e5760405162461bcd60e51b815260040161024590610a20565b60405180910390fd5b8054600182015460028301546003840154600490940154929a919950975091955060ff169350915050565b600081815260016020526040812060038101549091036102ab5760405162461bcd60e51b815260040161024590610a20565b600481015460ff161561030c5760405162461bcd60e51b8152602060048201526024808201527f783430325061796d656e74526f757465723a20616c726561647920636f6d706c604482015263195d195960e21b6064820152608401610245565b6001810154604051635ec407d760e11b81526000916001600160a01b037f0000000000000000000000000000000000000000000000000000000000000000169163bd880fae916103629160040190815260200190565b600060405180830381865afa15801561037f573d6000803e3d6000fd5b505050506040513d6000823e601f3d908101601f191682016040526103a79190810190610a7a565b5091925050506001600160a01b03811633146104145760405162461bcd60e51b815260206004820152602660248201527f783430325061796d656e74526f757465723a2063616c6c6572206e6f7420707260448201526537bb34b232b960d11b6064820152608401610245565b60048201805460ff1916600117905560405183907f43ab359e8607e8696df0271e813c45c9196a2a95f224515deff3d4f0d32a0b5b90600090a2505050565b604051632de5aaf760e01b81526004810183905260009081906001600160a01b037f00000000000000000000000000000000000000000000000000000000000000001690632de5aaf790602401600060405180830381865afa1580156104bd573d6000803e3d6000fd5b505050506040513d6000823e601f3d908101601f191682016040526104e59190810190610a7a565b5091925050506001600160a01b03811633146105555760405162461bcd60e51b815260206004820152602960248201527f783430325061796d656e74526f757465723a2063616c6c6572206e6f7420616760448201526832b73a1037bbb732b960b91b6064820152608401610245565b604051635ec407d760e11b81526004810184905260009081906001600160a01b037f0000000000000000000000000000000000000000000000000000000000000000169063bd880fae90602401600060405180830381865afa1580156105bf573d6000803e3d6000fd5b505050506040513d6000823e601f3d908101601f191682016040526105e79190810190610a7a565b50919350909150506001600160a01b0382166106515760405162461bcd60e51b815260206004820152602360248201527f783430325061796d656e74526f757465723a20696e76616c69642070726f76696044820152623232b960e91b6064820152608401610245565b336001600160a01b038316036106ba5760405162461bcd60e51b815260206004820152602860248201527f783430325061796d656e74526f757465723a2073656c662068697265206e6f7460448201526708185b1b1bddd95960c21b6064820152608401610245565b600081116107195760405162461bcd60e51b815260206004820152602660248201527f783430325061796d656e74526f757465723a20696e76616c696420736b696c6c60448201526520707269636560d01b6064820152608401610245565b6040516323b872dd60e01b81523360048201526001600160a01b038381166024830152604482018390526000917f0000000000000000000000000000000000000000000000000000000000000000909116906323b872dd906064016020604051808303816000875af1158015610793573d6000803e3d6000fd5b505050506040513d601f19601f820116820180604052508101906107b79190610b74565b9050806108165760405162461bcd60e51b815260206004820152602760248201527f783430325061796d656e74526f757465723a2055534443207472616e736665726044820152660819985a5b195960ca1b6064820152608401610245565b600080815461082490610b9d565b91829055506040805160a08101825289815260208082018a81528284018781524260608501908152600060808601818152888252600195869052908790209551865592519385019390935551600284015590516003830155516004918201805460ff19169115159190911790559051628cc13f60e41b81529081018890529095507f00000000000000000000000000000000000000000000000000000000000000006001600160a01b0316906308cc13f090602401600060405180830381600087803b1580156108f357600080fd5b505af1158015610907573d6000803e3d6000fd5b5050604051631841a15760e21b8152600481018a905260016024820152604481018590527f00000000000000000000000000000000000000000000000000000000000000006001600160a01b03169250636106855c9150606401600060405180830381600087803b15801561097b57600080fd5b505af115801561098f573d6000803e3d6000fd5b5050604080516001600160a01b0387168152602081018690528993508a925088917f40434ba3f2098e6a1473a91ce7d19348210e4fbe533be57927ac2126e14ccd5d910160405180910390a45050505092915050565b6000602082840312156109f757600080fd5b5035919050565b60008060408385031215610a1157600080fd5b50508035926020909101359150565b60208082526024908201527f783430325061796d656e74526f757465723a2072656365697074206e6f7420666040820152631bdd5b9960e21b606082015260800190565b634e487b7160e01b600052604160045260246000fd5b60008060008060808587031215610a9057600080fd5b84516001600160a01b0381168114610aa757600080fd5b8094505060208086015167ffffffffffffffff80821115610ac757600080fd5b818801915088601f830112610adb57600080fd5b815181811115610aed57610aed610a64565b604051601f8201601f19908116603f01168101908382118183101715610b1557610b15610a64565b816040528281528b86848701011115610b2d57600080fd5b600093505b82841015610b4f5784840186015181850187015292850192610b32565b6000928101909501919091525050506040860151606090960151949790965092505050565b600060208284031215610b8657600080fd5b81518015158114610b9657600080fd5b9392505050565b600060018201610bbd57634e487b7160e01b600052601160045260246000fd5b506001019056fea2646970667358221220ffa251e53e9de52f3c140b081a0972f9a589387a0e55f2c21ac72c101535e50d64736f6c63430008140033","opcodes":"PUSH2 0x100 PUSH1 0x40 MSTORE CALLVALUE DUP1 ISZERO PUSH3 0x12 JUMPI PUSH1 0x0 DUP1 REVERT JUMPDEST POP PUSH1 0x40 MLOAD PUSH3 0xECA CODESIZE SUB DUP1 PUSH3 0xECA DUP4 CODECOPY DUP2 ADD PUSH1 0x40 DUP2 SWAP1 MSTORE PUSH3 0x35 SWAP2 PUSH3 0x210 JUMP JUMPDEST PUSH1 0x1 PUSH1 0x1 PUSH1 0xA0 SHL SUB DUP5 AND PUSH3 0x91 JUMPI PUSH1 0x40 MLOAD PUSH3 0x461BCD PUSH1 0xE5 SHL DUP2 MSTORE PUSH1 0x20 PUSH1 0x4 DUP3 ADD DUP2 SWAP1 MSTORE PUSH1 0x24 DUP3 ADD MSTORE PUSH32 0x783430325061796D656E74526F757465723A2055534443207265717569726564 PUSH1 0x44 DUP3 ADD MSTORE PUSH1 0x64 ADD JUMPDEST PUSH1 0x40 MLOAD DUP1 SWAP2 SUB SWAP1 REVERT JUMPDEST PUSH1 0x1 PUSH1 0x1 PUSH1 0xA0 SHL SUB DUP4 AND PUSH3 0xFC JUMPI PUSH1 0x40 MLOAD PUSH3 0x461BCD PUSH1 0xE5 SHL DUP2 MSTORE PUSH1 0x20 PUSH1 0x4 DUP3 ADD MSTORE PUSH1 0x2A PUSH1 0x24 DUP3 ADD MSTORE PUSH32 0x783430325061796D656E74526F757465723A206167656E742072656769737472 PUSH1 0x44 DUP3 ADD MSTORE PUSH10 0x1E481C995C5D5A5C9959 PUSH1 0xB2 SHL PUSH1 0x64 DUP3 ADD MSTORE PUSH1 0x84 ADD PUSH3 0x88 JUMP JUMPDEST PUSH1 0x1 PUSH1 0x1 PUSH1 0xA0 SHL SUB DUP3 AND PUSH3 0x168 JUMPI PUSH1 0x40 MLOAD PUSH3 0x461BCD PUSH1 0xE5 SHL DUP2 MSTORE PUSH1 0x20 PUSH1 0x4 DUP3 ADD MSTORE PUSH1 0x2B PUSH1 0x24 DUP3 ADD MSTORE PUSH32 0x783430325061796D656E74526F757465723A20736B696C6C7320726567697374 PUSH1 0x44 DUP3 ADD MSTORE PUSH11 0x1C9E481C995C5D5A5C9959 PUSH1 0xAA SHL PUSH1 0x64 DUP3 ADD MSTORE PUSH1 0x84 ADD PUSH3 0x88 JUMP JUMPDEST PUSH1 0x1 PUSH1 0x1 PUSH1 0xA0 SHL SUB DUP2 AND PUSH3 0x1D0 JUMPI PUSH1 0x40 MLOAD PUSH3 0x461BCD PUSH1 0xE5 SHL DUP2 MSTORE PUSH1 0x20 PUSH1 0x4 DUP3 ADD MSTORE PUSH1 0x27 PUSH1 0x24 DUP3 ADD MSTORE PUSH32 0x783430325061796D656E74526F757465723A206C6561646572626F6172642072 PUSH1 0x44 DUP3 ADD MSTORE PUSH7 0x195C5D5A5C9959 PUSH1 0xCA SHL PUSH1 0x64 DUP3 ADD MSTORE PUSH1 0x84 ADD PUSH3 0x88 JUMP JUMPDEST PUSH1 0x1 PUSH1 0x1 PUSH1 0xA0 SHL SUB SWAP4 DUP5 AND PUSH1 0x80 MSTORE SWAP2 DUP4 AND PUSH1 0xA0 MSTORE DUP3 AND PUSH1 0xC0 MSTORE AND PUSH1 0xE0 MSTORE PUSH3 0x26D JUMP JUMPDEST DUP1 MLOAD PUSH1 0x1 PUSH1 0x1 PUSH1 0xA0 SHL SUB DUP2 AND DUP2 EQ PUSH3 0x20B JUMPI PUSH1 0x0 DUP1 REVERT JUMPDEST SWAP2 SWAP1 POP JUMP JUMPDEST PUSH1 0x0 DUP1 PUSH1 0x0 DUP1 PUSH1 0x80 DUP6 DUP8 SUB SLT ISZERO PUSH3 0x227 JUMPI PUSH1 0x0 DUP1 REVERT JUMPDEST PUSH3 0x232 DUP6 PUSH3 0x1F3 JUMP JUMPDEST SWAP4 POP PUSH3 0x242 PUSH1 0x20 DUP7 ADD PUSH3 0x1F3 JUMP JUMPDEST SWAP3 POP PUSH3 0x252 PUSH1 0x40 DUP7 ADD PUSH3 0x1F3 JUMP JUMPDEST SWAP2 POP PUSH3 0x262 PUSH1 0x60 DUP7 ADD PUSH3 0x1F3 JUMP JUMPDEST SWAP1 POP SWAP3 SWAP6 SWAP2 SWAP5 POP SWAP3 POP JUMP JUMPDEST PUSH1 0x80 MLOAD PUSH1 0xA0 MLOAD PUSH1 0xC0 MLOAD PUSH1 0xE0 MLOAD PUSH2 0xBFA PUSH3 0x2D0 PUSH1 0x0 CODECOPY PUSH1 0x0 DUP2 DUP2 PUSH2 0x1AF ADD MSTORE PUSH2 0x92D ADD MSTORE PUSH1 0x0 DUP2 DUP2 PUSH2 0x188 ADD MSTORE DUP2 DUP2 PUSH2 0x32B ADD MSTORE DUP2 DUP2 PUSH2 0x578 ADD MSTORE PUSH2 0x8A7 ADD MSTORE PUSH1 0x0 DUP2 DUP2 PUSH1 0x9D ADD MSTORE PUSH2 0x476 ADD MSTORE PUSH1 0x0 DUP2 DUP2 PUSH2 0x14A ADD MSTORE PUSH2 0x748 ADD MSTORE PUSH2 0xBFA PUSH1 0x0 RETURN INVALID PUSH1 0x80 PUSH1 0x40 MSTORE CALLVALUE DUP1 ISZERO PUSH2 0x10 JUMPI PUSH1 0x0 DUP1 REVERT JUMPDEST POP PUSH1 0x4 CALLDATASIZE LT PUSH2 0x93 JUMPI PUSH1 0x0 CALLDATALOAD PUSH1 0xE0 SHR DUP1 PUSH4 0x8001E9CD GT PUSH2 0x66 JUMPI DUP1 PUSH4 0x8001E9CD EQ PUSH2 0x183 JUMPI DUP1 PUSH4 0x88EFBC97 EQ PUSH2 0x1AA JUMPI DUP1 PUSH4 0xB63E6AC3 EQ PUSH2 0x1D1 JUMPI DUP1 PUSH4 0xCAC5C512 EQ PUSH2 0x1E4 JUMPI DUP1 PUSH4 0xD78BB0C7 EQ PUSH2 0x1F9 JUMPI PUSH1 0x0 DUP1 REVERT JUMPDEST DUP1 PUSH4 0xD1CFCAE EQ PUSH2 0x98 JUMPI DUP1 PUSH4 0xF7EE1EC EQ PUSH2 0xDC JUMPI DUP1 PUSH4 0x3E413BEE EQ PUSH2 0x145 JUMPI DUP1 PUSH4 0x7F038F3C EQ PUSH2 0x16C JUMPI JUMPDEST PUSH1 0x0 DUP1 REVERT JUMPDEST PUSH2 0xBF PUSH32 0x0 DUP2 JUMP JUMPDEST PUSH1 0x40 MLOAD PUSH1 0x1 PUSH1 0x1 PUSH1 0xA0 SHL SUB SWAP1 SWAP2 AND DUP2 MSTORE PUSH1 0x20 ADD JUMPDEST PUSH1 0x40 MLOAD DUP1 SWAP2 SUB SWAP1 RETURN JUMPDEST PUSH2 0x11B PUSH2 0xEA CALLDATASIZE PUSH1 0x4 PUSH2 0x9E5 JUMP JUMPDEST PUSH1 0x1 PUSH1 0x20 DUP2 SWAP1 MSTORE PUSH1 0x0 SWAP2 DUP3 MSTORE PUSH1 0x40 SWAP1 SWAP2 KECCAK256 DUP1 SLOAD SWAP2 DUP2 ADD SLOAD PUSH1 0x2 DUP3 ADD SLOAD PUSH1 0x3 DUP4 ADD SLOAD PUSH1 0x4 SWAP1 SWAP4 ADD SLOAD SWAP2 SWAP3 SWAP1 SWAP2 PUSH1 0xFF AND DUP6 JUMP JUMPDEST PUSH1 0x40 DUP1 MLOAD SWAP6 DUP7 MSTORE PUSH1 0x20 DUP7 ADD SWAP5 SWAP1 SWAP5 MSTORE SWAP3 DUP5 ADD SWAP2 SWAP1 SWAP2 MSTORE PUSH1 0x60 DUP4 ADD MSTORE ISZERO ISZERO PUSH1 0x80 DUP3 ADD MSTORE PUSH1 0xA0 ADD PUSH2 0xD3 JUMP JUMPDEST PUSH2 0xBF PUSH32 0x0 DUP2 JUMP JUMPDEST PUSH2 0x175 PUSH1 0x0 SLOAD DUP2 JUMP JUMPDEST PUSH1 0x40 MLOAD SWAP1 DUP2 MSTORE PUSH1 0x20 ADD PUSH2 0xD3 JUMP JUMPDEST PUSH2 0xBF PUSH32 0x0 DUP2 JUMP JUMPDEST PUSH2 0xBF PUSH32 0x0 DUP2 JUMP JUMPDEST PUSH2 0x11B PUSH2 0x1DF CALLDATASIZE PUSH1 0x4 PUSH2 0x9E5 JUMP JUMPDEST PUSH2 0x20C JUMP JUMPDEST PUSH2 0x1F7 PUSH2 0x1F2 CALLDATASIZE PUSH1 0x4 PUSH2 0x9E5 JUMP JUMPDEST PUSH2 0x279 JUMP JUMPDEST STOP JUMPDEST PUSH2 0x175 PUSH2 0x207 CALLDATASIZE PUSH1 0x4 PUSH2 0x9FE JUMP JUMPDEST PUSH2 0x453 JUMP JUMPDEST PUSH1 0x0 DUP2 DUP2 MSTORE PUSH1 0x1 PUSH1 0x20 MSTORE PUSH1 0x40 DUP2 KECCAK256 PUSH1 0x3 DUP2 ADD SLOAD DUP3 SWAP2 DUP3 SWAP2 DUP3 SWAP2 DUP3 SWAP2 DUP3 SUB PUSH2 0x24E JUMPI PUSH1 0x40 MLOAD PUSH3 0x461BCD PUSH1 0xE5 SHL DUP2 MSTORE PUSH1 0x4 ADD PUSH2 0x245 SWAP1 PUSH2 0xA20 JUMP JUMPDEST PUSH1 0x40 MLOAD DUP1 SWAP2 SUB SWAP1 REVERT JUMPDEST DUP1 SLOAD PUSH1 0x1 DUP3 ADD SLOAD PUSH1 0x2 DUP4 ADD SLOAD PUSH1 0x3 DUP5 ADD SLOAD PUSH1 0x4 SWAP1 SWAP5 ADD SLOAD SWAP3 SWAP11 SWAP2 SWAP10 POP SWAP8 POP SWAP2 SWAP6 POP PUSH1 0xFF AND SWAP4 POP SWAP2 POP POP JUMP JUMPDEST PUSH1 0x0 DUP2 DUP2 MSTORE PUSH1 0x1 PUSH1 0x20 MSTORE PUSH1 0x40 DUP2 KECCAK256 PUSH1 0x3 DUP2 ADD SLOAD SWAP1 SWAP2 SUB PUSH2 0x2AB JUMPI PUSH1 0x40 MLOAD PUSH3 0x461BCD PUSH1 0xE5 SHL DUP2 MSTORE PUSH1 0x4 ADD PUSH2 0x245 SWAP1 PUSH2 0xA20 JUMP JUMPDEST PUSH1 0x4 DUP2 ADD SLOAD PUSH1 0xFF AND ISZERO PUSH2 0x30C JUMPI PUSH1 0x40 MLOAD PUSH3 0x461BCD PUSH1 0xE5 SHL DUP2 MSTORE PUSH1 0x20 PUSH1 0x4 DUP3 ADD MSTORE PUSH1 0x24 DUP1 DUP3 ADD MSTORE PUSH32 0x783430325061796D656E74526F757465723A20616C726561647920636F6D706C PUSH1 0x44 DUP3 ADD MSTORE PUSH4 0x195D1959 PUSH1 0xE2 SHL PUSH1 0x64 DUP3 ADD MSTORE PUSH1 0x84 ADD PUSH2 0x245 JUMP JUMPDEST PUSH1 0x1 DUP2 ADD SLOAD PUSH1 0x40 MLOAD PUSH4 0x5EC407D7 PUSH1 0xE1 SHL DUP2 MSTORE PUSH1 0x0 SWAP2 PUSH1 0x1 PUSH1 0x1 PUSH1 0xA0 SHL SUB PUSH32 0x0 AND SWAP2 PUSH4 0xBD880FAE SWAP2 PUSH2 0x362 SWAP2 PUSH1 0x4 ADD SWAP1 DUP2 MSTORE PUSH1 0x20 ADD SWAP1 JUMP JUMPDEST PUSH1 0x0 PUSH1 0x40 MLOAD DUP1 DUP4 SUB DUP2 DUP7 GAS STATICCALL ISZERO DUP1 ISZERO PUSH2 0x37F JUMPI RETURNDATASIZE PUSH1 0x0 DUP1 RETURNDATACOPY RETURNDATASIZE PUSH1 0x0 REVERT JUMPDEST POP POP POP POP PUSH1 0x40 MLOAD RETURNDATASIZE PUSH1 0x0 DUP3 RETURNDATACOPY PUSH1 0x1F RETURNDATASIZE SWAP1 DUP2 ADD PUSH1 0x1F NOT AND DUP3 ADD PUSH1 0x40 MSTORE PUSH2 0x3A7 SWAP2 SWAP1 DUP2 ADD SWAP1 PUSH2 0xA7A JUMP JUMPDEST POP SWAP2 SWAP3 POP POP POP PUSH1 0x1 PUSH1 0x1 PUSH1 0xA0 SHL SUB DUP2 AND CALLER EQ PUSH2 0x414 JUMPI PUSH1 0x40 MLOAD PUSH3 0x461BCD PUSH1 0xE5 SHL DUP2 MSTORE PUSH1 0x20 PUSH1 0x4 DUP3 ADD MSTORE PUSH1 0x26 PUSH1 0x24 DUP3 ADD MSTORE PUSH32 0x783430325061796D656E74526F757465723A2063616C6C6572206E6F74207072 PUSH1 0x44 DUP3 ADD MSTORE PUSH6 0x37BB34B232B9 PUSH1 0xD1 SHL PUSH1 0x64 DUP3 ADD MSTORE PUSH1 0x84 ADD PUSH2 0x245 JUMP JUMPDEST PUSH1 0x4 DUP3 ADD DUP1 SLOAD PUSH1 0xFF NOT AND PUSH1 0x1 OR SWAP1 SSTORE PUSH1 0x40 MLOAD DUP4 SWAP1 PUSH32 0x43AB359E8607E8696DF0271E813C45C9196A2A95F224515DEFF3D4F0D32A0B5B SWAP1 PUSH1 0x0 SWAP1 LOG2 POP POP POP JUMP JUMPDEST PUSH1 0x40 MLOAD PUSH4 0x2DE5AAF7 PUSH1 0xE0 SHL DUP2 MSTORE PUSH1 0x4 DUP2 ADD DUP4 SWAP1 MSTORE PUSH1 0x0 SWAP1 DUP2 SWAP1 PUSH1 0x1 PUSH1 0x1 PUSH1 0xA0 SHL SUB PUSH32 0x0 AND SWAP1 PUSH4 0x2DE5AAF7 SWAP1 PUSH1 0x24 ADD PUSH1 0x0 PUSH1 0x40 MLOAD DUP1 DUP4 SUB DUP2 DUP7 GAS STATICCALL ISZERO DUP1 ISZERO PUSH2 0x4BD JUMPI RETURNDATASIZE PUSH1 0x0 DUP1 RETURNDATACOPY RETURNDATASIZE PUSH1 0x0 REVERT JUMPDEST POP POP POP POP PUSH1 0x40 MLOAD RETURNDATASIZE PUSH1 0x0 DUP3 RETURNDATACOPY PUSH1 0x1F RETURNDATASIZE SWAP1 DUP2 ADD PUSH1 0x1F NOT AND DUP3 ADD PUSH1 0x40 MSTORE PUSH2 0x4E5 SWAP2 SWAP1 DUP2 ADD SWAP1 PUSH2 0xA7A JUMP JUMPDEST POP SWAP2 SWAP3 POP POP POP PUSH1 0x1 PUSH1 0x1 PUSH1 0xA0 SHL SUB DUP2 AND CALLER EQ PUSH2 0x555 JUMPI PUSH1 0x40 MLOAD PUSH3 0x461BCD PUSH1 0xE5 SHL DUP2 MSTORE PUSH1 0x20 PUSH1 0x4 DUP3 ADD MSTORE PUSH1 0x29 PUSH1 0x24 DUP3 ADD MSTORE PUSH32 0x783430325061796D656E74526F757465723A2063616C6C6572206E6F74206167 PUSH1 0x44 DUP3 ADD MSTORE PUSH9 0x32B73A1037BBB732B9 PUSH1 0xB9 SHL PUSH1 0x64 DUP3 ADD MSTORE PUSH1 0x84 ADD PUSH2 0x245 JUMP JUMPDEST PUSH1 0x40 MLOAD PUSH4 0x5EC407D7 PUSH1 0xE1 SHL DUP2 MSTORE PUSH1 0x4 DUP2 ADD DUP5 SWAP1 MSTORE PUSH1 0x0 SWAP1 DUP2 SWAP1 PUSH1 0x1 PUSH1 0x1 PUSH1 0xA0 SHL SUB PUSH32 0x0 AND SWAP1 PUSH4 0xBD880FAE SWAP1 PUSH1 0x24 ADD PUSH1 0x0 PUSH1 0x40 MLOAD DUP1 DUP4 SUB DUP2 DUP7 GAS STATICCALL ISZERO DUP1 ISZERO PUSH2 0x5BF JUMPI RETURNDATASIZE PUSH1 0x0 DUP1 RETURNDATACOPY RETURNDATASIZE PUSH1 0x0 REVERT JUMPDEST POP POP POP POP PUSH1 0x40 MLOAD RETURNDATASIZE PUSH1 0x0 DUP3 RETURNDATACOPY PUSH1 0x1F RETURNDATASIZE SWAP1 DUP2 ADD PUSH1 0x1F NOT AND DUP3 ADD PUSH1 0x40 MSTORE PUSH2 0x5E7 SWAP2 SWAP1 DUP2 ADD SWAP1 PUSH2 0xA7A JUMP JUMPDEST POP SWAP2 SWAP4 POP SWAP1 SWAP2 POP POP PUSH1 0x1 PUSH1 0x1 PUSH1 0xA0 SHL SUB DUP3 AND PUSH2 0x651 JUMPI PUSH1 0x40 MLOAD PUSH3 0x461BCD PUSH1 0xE5 SHL DUP2 MSTORE PUSH1 0x20 PUSH1 0x4 DUP3 ADD MSTORE PUSH1 0x23 PUSH1 0x24 DUP3 ADD MSTORE PUSH32 0x783430325061796D656E74526F757465723A20696E76616C69642070726F7669 PUSH1 0x44 DUP3 ADD MSTORE PUSH3 0x3232B9 PUSH1 0xE9 SHL PUSH1 0x64 DUP3 ADD MSTORE PUSH1 0x84 ADD PUSH2 0x245 JUMP JUMPDEST CALLER PUSH1 0x1 PUSH1 0x1 PUSH1 0xA0 SHL SUB DUP4 AND SUB PUSH2 0x6BA JUMPI PUSH1 0x40 MLOAD PUSH3 0x461BCD PUSH1 0xE5 SHL DUP2 MSTORE PUSH1 0x20 PUSH1 0x4 DUP3 ADD MSTORE PUSH1 0x28 PUSH1 0x24 DUP3 ADD MSTORE PUSH32 0x783430325061796D656E74526F757465723A2073656C662068697265206E6F74 PUSH1 0x44 DUP3 ADD MSTORE PUSH8 0x8185B1B1BDDD959 PUSH1 0xC2 SHL PUSH1 0x64 DUP3 ADD MSTORE PUSH1 0x84 ADD PUSH2 0x245 JUMP JUMPDEST PUSH1 0x0 DUP2 GT PUSH2 0x719 JUMPI PUSH1 0x40 MLOAD PUSH3 0x461BCD PUSH1 0xE5 SHL DUP2 MSTORE PUSH1 0x20 PUSH1 0x4 DUP3 ADD MSTORE PUSH1 0x26 PUSH1 0x24 DUP3 ADD MSTORE PUSH32 0x783430325061796D656E74526F757465723A20696E76616C696420736B696C6C PUSH1 0x44 DUP3 ADD MSTORE PUSH6 0x207072696365 PUSH1 0xD0 SHL PUSH1 0x64 DUP3 ADD MSTORE PUSH1 0x84 ADD PUSH2 0x245 JUMP JUMPDEST PUSH1 0x40 MLOAD PUSH4 0x23B872DD PUSH1 0xE0 SHL DUP2 MSTORE CALLER PUSH1 0x4 DUP3 ADD MSTORE PUSH1 0x1 PUSH1 0x1 PUSH1 0xA0 SHL SUB DUP4 DUP2 AND PUSH1 0x24 DUP4 ADD MSTORE PUSH1 0x44 DUP3 ADD DUP4 SWAP1 MSTORE PUSH1 0x0 SWAP2 PUSH32 0x0 SWAP1 SWAP2 AND SWAP1 PUSH4 0x23B872DD SWAP1 PUSH1 0x64 ADD PUSH1 0x20 PUSH1 0x40 MLOAD DUP1 DUP4 SUB DUP2 PUSH1 0x0 DUP8 GAS CALL ISZERO DUP1 ISZERO PUSH2 0x793 JUMPI RETURNDATASIZE PUSH1 0x0 DUP1 RETURNDATACOPY RETURNDATASIZE PUSH1 0x0 REVERT JUMPDEST POP POP POP POP PUSH1 0x40 MLOAD RETURNDATASIZE PUSH1 0x1F NOT PUSH1 0x1F DUP3 ADD AND DUP3 ADD DUP1 PUSH1 0x40 MSTORE POP DUP2 ADD SWAP1 PUSH2 0x7B7 SWAP2 SWAP1 PUSH2 0xB74 JUMP JUMPDEST SWAP1 POP DUP1 PUSH2 0x816 JUMPI PUSH1 0x40 MLOAD PUSH3 0x461BCD PUSH1 0xE5 SHL DUP2 MSTORE PUSH1 0x20 PUSH1 0x4 DUP3 ADD MSTORE PUSH1 0x27 PUSH1 0x24 DUP3 ADD MSTORE PUSH32 0x783430325061796D656E74526F757465723A2055534443207472616E73666572 PUSH1 0x44 DUP3 ADD MSTORE PUSH7 0x819985A5B1959 PUSH1 0xCA SHL PUSH1 0x64 DUP3 ADD MSTORE PUSH1 0x84 ADD PUSH2 0x245 JUMP JUMPDEST PUSH1 0x0 DUP1 DUP2 SLOAD PUSH2 0x824 SWAP1 PUSH2 0xB9D JUMP JUMPDEST SWAP2 DUP3 SWAP1 SSTORE POP PUSH1 0x40 DUP1 MLOAD PUSH1 0xA0 DUP2 ADD DUP3 MSTORE DUP10 DUP2 MSTORE PUSH1 0x20 DUP1 DUP3 ADD DUP11 DUP2 MSTORE DUP3 DUP5 ADD DUP8 DUP2 MSTORE TIMESTAMP PUSH1 0x60 DUP6 ADD SWAP1 DUP2 MSTORE PUSH1 0x0 PUSH1 0x80 DUP7 ADD DUP2 DUP2 MSTORE DUP9 DUP3 MSTORE PUSH1 0x1 SWAP6 DUP7 SWAP1 MSTORE SWAP1 DUP8 SWAP1 KECCAK256 SWAP6 MLOAD DUP7 SSTORE SWAP3 MLOAD SWAP4 DUP6 ADD SWAP4 SWAP1 SWAP4 SSTORE MLOAD PUSH1 0x2 DUP5 ADD SSTORE SWAP1 MLOAD PUSH1 0x3 DUP4 ADD SSTORE MLOAD PUSH1 0x4 SWAP2 DUP3 ADD DUP1 SLOAD PUSH1 0xFF NOT AND SWAP2 ISZERO ISZERO SWAP2 SWAP1 SWAP2 OR SWAP1 SSTORE SWAP1 MLOAD PUSH3 0x8CC13F PUSH1 0xE4 SHL DUP2 MSTORE SWAP1 DUP2 ADD DUP9 SWAP1 MSTORE SWAP1 SWAP6 POP PUSH32 0x0 PUSH1 0x1 PUSH1 0x1 PUSH1 0xA0 SHL SUB AND SWAP1 PUSH4 0x8CC13F0 SWAP1 PUSH1 0x24 ADD PUSH1 0x0 PUSH1 0x40 MLOAD DUP1 DUP4 SUB DUP2 PUSH1 0x0 DUP8 DUP1 EXTCODESIZE ISZERO DUP1 ISZERO PUSH2 0x8F3 JUMPI PUSH1 0x0 DUP1 REVERT JUMPDEST POP GAS CALL ISZERO DUP1 ISZERO PUSH2 0x907 JUMPI RETURNDATASIZE PUSH1 0x0 DUP1 RETURNDATACOPY RETURNDATASIZE PUSH1 0x0 REVERT JUMPDEST POP POP PUSH1 0x40 MLOAD PUSH4 0x1841A157 PUSH1 0xE2 SHL DUP2 MSTORE PUSH1 0x4 DUP2 ADD DUP11 SWAP1 MSTORE PUSH1 0x1 PUSH1 0x24 DUP3 ADD MSTORE PUSH1 0x44 DUP2 ADD DUP6 SWAP1 MSTORE PUSH32 0x0 PUSH1 0x1 PUSH1 0x1 PUSH1 0xA0 SHL SUB AND SWAP3 POP PUSH4 0x6106855C SWAP2 POP PUSH1 0x64 ADD PUSH1 0x0 PUSH1 0x40 MLOAD DUP1 DUP4 SUB DUP2 PUSH1 0x0 DUP8 DUP1 EXTCODESIZE ISZERO DUP1 ISZERO PUSH2 0x97B JUMPI PUSH1 0x0 DUP1 REVERT JUMPDEST POP GAS CALL ISZERO DUP1 ISZERO PUSH2 0x98F JUMPI RETURNDATASIZE PUSH1 0x0 DUP1 RETURNDATACOPY RETURNDATASIZE PUSH1 0x0 REVERT JUMPDEST POP POP PUSH1 0x40 DUP1 MLOAD PUSH1 0x1 PUSH1 0x1 PUSH1 0xA0 SHL SUB DUP8 AND DUP2 MSTORE PUSH1 0x20 DUP2 ADD DUP7 SWAP1 MSTORE DUP10 SWAP4 POP DUP11 SWAP3 POP DUP9 SWAP2 PUSH32 0x40434BA3F2098E6A1473A91CE7D19348210E4FBE533BE57927AC2126E14CCD5D SWAP2 ADD PUSH1 0x40 MLOAD DUP1 SWAP2 SUB SWAP1 LOG4 POP POP POP POP SWAP3 SWAP2 POP POP JUMP JUMPDEST PUSH1 0x0 PUSH1 0x20 DUP3 DUP5 SUB SLT ISZERO PUSH2 0x9F7 JUMPI PUSH1 0x0 DUP1 REVERT JUMPDEST POP CALLDATALOAD SWAP2 SWAP1 POP JUMP JUMPDEST PUSH1 0x0 DUP1 PUSH1 0x40 DUP4 DUP6 SUB SLT ISZERO PUSH2 0xA11 JUMPI PUSH1 0x0 DUP1 REVERT JUMPDEST POP POP DUP1 CALLDATALOAD SWAP3 PUSH1 0x20 SWAP1 SWAP2 ADD CALLDATALOAD SWAP2 POP JUMP JUMPDEST PUSH1 0x20 DUP1 DUP3 MSTORE PUSH1 0x24 SWAP1 DUP3 ADD MSTORE PUSH32 0x783430325061796D656E74526F757465723A2072656365697074206E6F742066 PUSH1 0x40 DUP3 ADD MSTORE PUSH4 0x1BDD5B99 PUSH1 0xE2 SHL PUSH1 0x60 DUP3 ADD MSTORE PUSH1 0x80 ADD SWAP1 JUMP JUMPDEST PUSH4 0x4E487B71 PUSH1 0xE0 SHL PUSH1 0x0 MSTORE PUSH1 0x41 PUSH1 0x4 MSTORE PUSH1 0x24 PUSH1 0x0 REVERT JUMPDEST PUSH1 0x0 DUP1 PUSH1 0x0 DUP1 PUSH1 0x80 DUP6 DUP8 SUB SLT ISZERO PUSH2 0xA90 JUMPI PUSH1 0x0 DUP1 REVERT JUMPDEST DUP5 MLOAD PUSH1 0x1 PUSH1 0x1 PUSH1 0xA0 SHL SUB DUP2 AND DUP2 EQ PUSH2 0xAA7 JUMPI PUSH1 0x0 DUP1 REVERT JUMPDEST DUP1 SWAP5 POP POP PUSH1 0x20 DUP1 DUP7 ADD MLOAD PUSH8 0xFFFFFFFFFFFFFFFF DUP1 DUP3 GT ISZERO PUSH2 0xAC7 JUMPI PUSH1 0x0 DUP1 REVERT JUMPDEST DUP2 DUP9 ADD SWAP2 POP DUP9 PUSH1 0x1F DUP4 ADD SLT PUSH2 0xADB JUMPI PUSH1 0x0 DUP1 REVERT JUMPDEST DUP2 MLOAD DUP2 DUP2 GT ISZERO PUSH2 0xAED JUMPI PUSH2 0xAED PUSH2 0xA64 JUMP JUMPDEST PUSH1 0x40 MLOAD PUSH1 0x1F DUP3 ADD PUSH1 0x1F NOT SWAP1 DUP2 AND PUSH1 0x3F ADD AND DUP2 ADD SWAP1 DUP4 DUP3 GT DUP2 DUP4 LT OR ISZERO PUSH2 0xB15 JUMPI PUSH2 0xB15 PUSH2 0xA64 JUMP JUMPDEST DUP2 PUSH1 0x40 MSTORE DUP3 DUP2 MSTORE DUP12 DUP7 DUP5 DUP8 ADD ADD GT ISZERO PUSH2 0xB2D JUMPI PUSH1 0x0 DUP1 REVERT JUMPDEST PUSH1 0x0 SWAP4 POP JUMPDEST DUP3 DUP5 LT ISZERO PUSH2 0xB4F JUMPI DUP5 DUP5 ADD DUP7 ADD MLOAD DUP2 DUP6 ADD DUP8 ADD MSTORE SWAP3 DUP6 ADD SWAP3 PUSH2 0xB32 JUMP JUMPDEST PUSH1 0x0 SWAP3 DUP2 ADD SWAP1 SWAP6 ADD SWAP2 SWAP1 SWAP2 MSTORE POP POP POP PUSH1 0x40 DUP7 ADD MLOAD PUSH1 0x60 SWAP1 SWAP7 ADD MLOAD SWAP5 SWAP8 SWAP1 SWAP7 POP SWAP3 POP POP POP JUMP JUMPDEST PUSH1 0x0 PUSH1 0x20 DUP3 DUP5 SUB SLT ISZERO PUSH2 0xB86 JUMPI PUSH1 0x0 DUP1 REVERT JUMPDEST DUP2 MLOAD DUP1 ISZERO ISZERO DUP2 EQ PUSH2 0xB96 JUMPI PUSH1 0x0 DUP1 REVERT JUMPDEST SWAP4 SWAP3 POP POP POP JUMP JUMPDEST PUSH1 0x0 PUSH1 0x1 DUP3 ADD PUSH2 0xBBD JUMPI PUSH4 0x4E487B71 PUSH1 0xE0 SHL PUSH1 0x0 MSTORE PUSH1 0x11 PUSH1 0x4 MSTORE PUSH1 0x24 PUSH1 0x0 REVERT JUMPDEST POP PUSH1 0x1 ADD SWAP1 JUMP INVALID LOG2 PUSH5 0x6970667358 0x22 SLT KECCAK256 SELFDESTRUCT LOG2 MLOAD 0xE5 RETURNDATACOPY SWAP14 0xE5 0x2F EXTCODECOPY EQ SIGNEXTEND ADDMOD BYTE MULMOD PUSH19 0xF9A589387A0E55F2C21AC72C101535E50D6473 PUSH16 0x6C634300081400330000000000000000 "},"methodIdentifiers":{"agentRegistry()":"0d1cfcae","getReceipt(uint256)":"b63e6ac3","hireSkill(uint256,uint256)":"d78bb0c7","leaderboardTracker()":"88efbc97","markCompleted(uint256)":"cac5c512","receiptCount()":"7f038f3c","receipts(uint256)":"0f7ee1ec","skillsRegistry()":"8001e9cd","usdc()":"3e413bee"}}}}}