{"contracts/LeaderboardTracker.sol":{"LeaderboardTracker":{"abi":[{"inputs":[{"internalType":"address","name":"_paymentRouter","type":"address"}],"stateMutability":"nonpayable","type":"constructor"},{"anonymous":false,"inputs":[{"indexed":true,"internalType":"uint256","name":"agentId","type":"uint256"},{"indexed":false,"internalType":"uint256","name":"totalTxns","type":"uint256"},{"indexed":false,"internalType":"uint256","name":"totalUsdcPaid","type":"uint256"}],"name":"ActivityRecorded","type":"event"},{"inputs":[{"internalType":"uint256","name":"","type":"uint256"}],"name":"activities","outputs":[{"internalType":"uint256","name":"agentId","type":"uint256"},{"internalType":"uint256","name":"txCount","type":"uint256"},{"internalType":"uint256","name":"usdcPaid","type":"uint256"}],"stateMutability":"view","type":"function"},{"inputs":[{"internalType":"uint256","name":"limit","type":"uint256"}],"name":"getTopAgents","outputs":[{"components":[{"internalType":"uint256","name":"agentId","type":"uint256"},{"internalType":"uint256","name":"txCount","type":"uint256"},{"internalType":"uint256","name":"usdcPaid","type":"uint256"}],"internalType":"struct LeaderboardTracker.AgentActivity[]","name":"topAgents","type":"tuple[]"}],"stateMutability":"view","type":"function"},{"inputs":[{"internalType":"uint256","name":"","type":"uint256"}],"name":"isTracked","outputs":[{"internalType":"bool","name":"","type":"bool"}],"stateMutability":"view","type":"function"},{"inputs":[],"name":"paymentRouter","outputs":[{"internalType":"address","name":"","type":"address"}],"stateMutability":"view","type":"function"},{"inputs":[{"internalType":"uint256","name":"agentId","type":"uint256"},{"internalType":"uint256","name":"txCount","type":"uint256"},{"internalType":"uint256","name":"usdcPaid","type":"uint256"}],"name":"recordActivity","outputs":[],"stateMutability":"nonpayable","type":"function"},{"inputs":[{"internalType":"uint256","name":"","type":"uint256"}],"name":"trackedAgentIds","outputs":[{"internalType":"uint256","name":"","type":"uint256"}],"stateMutability":"view","type":"function"}],"evm":{"bytecode":{"linkReferences":{},"object":"60a060405234801561001057600080fd5b5060405161093b38038061093b83398101604081905261002f916100a6565b6001600160a01b0381166100955760405162461bcd60e51b815260206004820152602360248201527f4c6561646572626f617264547261636b65723a20726f757465722072657175696044820152621c995960ea1b606482015260840160405180910390fd5b6001600160a01b03166080526100d6565b6000602082840312156100b857600080fd5b81516001600160a01b03811681146100cf57600080fd5b9392505050565b6080516108436100f860003960008181610144015261018901526108436000f3fe608060405234801561001057600080fd5b50600436106100625760003560e01c80630d1657e8146100675780631194f9e9146100b65780636106855c146100e95780639ac7f84c146100fe578063b1e29ea41461011f578063ff781bbf1461013f575b600080fd5b6100966100753660046106fb565b60006020819052908152604090208054600182015460029092015490919083565b604080519384526020840192909252908201526060015b60405180910390f35b6100d96100c43660046106fb565b60026020526000908152604090205460ff1681565b60405190151581526020016100ad565b6100fc6100f7366004610714565b61017e565b005b61011161010c3660046106fb565b610365565b6040519081526020016100ad565b61013261012d3660046106fb565b610386565b6040516100ad9190610740565b6101667f000000000000000000000000000000000000000000000000000000000000000081565b6040516001600160a01b0390911681526020016100ad565b336001600160a01b037f000000000000000000000000000000000000000000000000000000000000000016146102095760405162461bcd60e51b815260206004820152602560248201527f4c6561646572626f617264547261636b65723a2063616c6c6572206e6f74207260448201526437baba32b960d91b60648201526084015b60405180910390fd5b600083116102655760405162461bcd60e51b8152602060048201526024808201527f4c6561646572626f617264547261636b65723a20696e76616c6964206167656e6044820152631d081a5960e21b6064820152608401610200565b60008381526002602052604090205460ff166102d1576000838152600260209081526040808320805460ff1916600190811790915580548082019091557fb10e2d527612073b26eecdfd717e6a320cf44b4afac2b0732d9fcbe2b7fa0cf6018690559082905290208390555b6000838152602081905260408120600181018054919285926102f49084906107af565b925050819055508181600201600082825461030f91906107af565b90915550506001810154600282015460405186927f15d96425c87b88cab4760bb6cbdbfceca228d567bc444143d106ae197c247fd39261035792918252602082015260400190565b60405180910390a250505050565b6001818154811061037557600080fd5b600091825260209091200154905081565b60015460609080831115610398578092505b60008167ffffffffffffffff8111156103b3576103b36107c8565b60405190808252806020026020018201604052801561040857816020015b6103f560405180606001604052806000815260200160008152602001600081525090565b8152602001906001900390816103d15790505b50905060005b8281101561049e576000806001838154811061042c5761042c6107de565b906000526020600020015481526020019081526020016000206040518060600160405290816000820154815260200160018201548152602001600282015481525050828281518110610480576104806107de565b60200260200101819052508080610496906107f4565b91505061040e565b5060005b8281101561062c5760006104b78260016107af565b90505b838110156106195760008383815181106104d6576104d66107de565b6020026020010151602001518483815181106104f4576104f46107de565b60200260200101516020015111806105895750838381518110610519576105196107de565b602002602001015160200151848381518110610537576105376107de565b602002602001015160200151148015610589575083838151811061055d5761055d6107de565b60200260200101516040015184838151811061057b5761057b6107de565b602002602001015160400151115b905080156106065760008484815181106105a5576105a56107de565b602002602001015190508483815181106105c1576105c16107de565b60200260200101518585815181106105db576105db6107de565b6020026020010181905250808584815181106105f9576105f96107de565b6020026020010181905250505b5080610611816107f4565b9150506104ba565b5080610624816107f4565b9150506104a2565b508367ffffffffffffffff811115610646576106466107c8565b60405190808252806020026020018201604052801561069b57816020015b61068860405180606001604052806000815260200160008152602001600081525090565b8152602001906001900390816106645790505b50925060005b848110156106f3578181815181106106bb576106bb6107de565b60200260200101518482815181106106d5576106d56107de565b602002602001018190525080806106eb906107f4565b9150506106a1565b505050919050565b60006020828403121561070d57600080fd5b5035919050565b60008060006060848603121561072957600080fd5b505081359360208301359350604090920135919050565b602080825282518282018190526000919060409081850190868401855b8281101561078c578151805185528681015187860152850151858501526060909301929085019060010161075d565b5091979650505050505050565b634e487b7160e01b600052601160045260246000fd5b808201808211156107c2576107c2610799565b92915050565b634e487b7160e01b600052604160045260246000fd5b634e487b7160e01b600052603260045260246000fd5b60006001820161080657610806610799565b506001019056fea2646970667358221220a03d50e28d86b3dfae5ff968dede46abc5a119e672e549c0897c7ccb4a9b457a64736f6c63430008140033","opcodes":"PUSH1 0xA0 PUSH1 0x40 MSTORE CALLVALUE DUP1 ISZERO PUSH2 0x10 JUMPI PUSH1 0x0 DUP1 REVERT JUMPDEST POP PUSH1 0x40 MLOAD PUSH2 0x93B CODESIZE SUB DUP1 PUSH2 0x93B DUP4 CODECOPY DUP2 ADD PUSH1 0x40 DUP2 SWAP1 MSTORE PUSH2 0x2F SWAP2 PUSH2 0xA6 JUMP JUMPDEST PUSH1 0x1 PUSH1 0x1 PUSH1 0xA0 SHL SUB DUP2 AND PUSH2 0x95 JUMPI PUSH1 0x40 MLOAD PUSH3 0x461BCD PUSH1 0xE5 SHL DUP2 MSTORE PUSH1 0x20 PUSH1 0x4 DUP3 ADD MSTORE PUSH1 0x23 PUSH1 0x24 DUP3 ADD MSTORE PUSH32 0x4C6561646572626F617264547261636B65723A20726F75746572207265717569 PUSH1 0x44 DUP3 ADD MSTORE PUSH3 0x1C9959 PUSH1 0xEA SHL PUSH1 0x64 DUP3 ADD MSTORE PUSH1 0x84 ADD PUSH1 0x40 MLOAD DUP1 SWAP2 SUB SWAP1 REVERT JUMPDEST PUSH1 0x1 PUSH1 0x1 PUSH1 0xA0 SHL SUB AND PUSH1 0x80 MSTORE PUSH2 0xD6 JUMP JUMPDEST PUSH1 0x0 PUSH1 0x20 DUP3 DUP5 SUB SLT ISZERO PUSH2 0xB8 JUMPI PUSH1 0x0 DUP1 REVERT JUMPDEST DUP2 MLOAD PUSH1 0x1 PUSH1 0x1 PUSH1 0xA0 SHL SUB DUP2 AND DUP2 EQ PUSH2 0xCF JUMPI PUSH1 0x0 DUP1 REVERT JUMPDEST SWAP4 SWAP3 POP POP POP JUMP JUMPDEST PUSH1 0x80 MLOAD PUSH2 0x843 PUSH2 0xF8 PUSH1 0x0 CODECOPY PUSH1 0x0 DUP2 DUP2 PUSH2 0x144 ADD MSTORE PUSH2 0x189 ADD MSTORE PUSH2 0x843 PUSH1 0x0 RETURN INVALID PUSH1 0x80 PUSH1 0x40 MSTORE CALLVALUE DUP1 ISZERO PUSH2 0x10 JUMPI PUSH1 0x0 DUP1 REVERT JUMPDEST POP PUSH1 0x4 CALLDATASIZE LT PUSH2 0x62 JUMPI PUSH1 0x0 CALLDATALOAD PUSH1 0xE0 SHR DUP1 PUSH4 0xD1657E8 EQ PUSH2 0x67 JUMPI DUP1 PUSH4 0x1194F9E9 EQ PUSH2 0xB6 JUMPI DUP1 PUSH4 0x6106855C EQ PUSH2 0xE9 JUMPI DUP1 PUSH4 0x9AC7F84C EQ PUSH2 0xFE JUMPI DUP1 PUSH4 0xB1E29EA4 EQ PUSH2 0x11F JUMPI DUP1 PUSH4 0xFF781BBF EQ PUSH2 0x13F JUMPI JUMPDEST PUSH1 0x0 DUP1 REVERT JUMPDEST PUSH2 0x96 PUSH2 0x75 CALLDATASIZE PUSH1 0x4 PUSH2 0x6FB JUMP JUMPDEST PUSH1 0x0 PUSH1 0x20 DUP2 SWAP1 MSTORE SWAP1 DUP2 MSTORE PUSH1 0x40 SWAP1 KECCAK256 DUP1 SLOAD PUSH1 0x1 DUP3 ADD SLOAD PUSH1 0x2 SWAP1 SWAP3 ADD SLOAD SWAP1 SWAP2 SWAP1 DUP4 JUMP JUMPDEST PUSH1 0x40 DUP1 MLOAD SWAP4 DUP5 MSTORE PUSH1 0x20 DUP5 ADD SWAP3 SWAP1 SWAP3 MSTORE SWAP1 DUP3 ADD MSTORE PUSH1 0x60 ADD JUMPDEST PUSH1 0x40 MLOAD DUP1 SWAP2 SUB SWAP1 RETURN JUMPDEST PUSH2 0xD9 PUSH2 0xC4 CALLDATASIZE PUSH1 0x4 PUSH2 0x6FB JUMP JUMPDEST PUSH1 0x2 PUSH1 0x20 MSTORE PUSH1 0x0 SWAP1 DUP2 MSTORE PUSH1 0x40 SWAP1 KECCAK256 SLOAD PUSH1 0xFF AND DUP2 JUMP JUMPDEST PUSH1 0x40 MLOAD SWAP1 ISZERO ISZERO DUP2 MSTORE PUSH1 0x20 ADD PUSH2 0xAD JUMP JUMPDEST PUSH2 0xFC PUSH2 0xF7 CALLDATASIZE PUSH1 0x4 PUSH2 0x714 JUMP JUMPDEST PUSH2 0x17E JUMP JUMPDEST STOP JUMPDEST PUSH2 0x111 PUSH2 0x10C CALLDATASIZE PUSH1 0x4 PUSH2 0x6FB JUMP JUMPDEST PUSH2 0x365 JUMP JUMPDEST PUSH1 0x40 MLOAD SWAP1 DUP2 MSTORE PUSH1 0x20 ADD PUSH2 0xAD JUMP JUMPDEST PUSH2 0x132 PUSH2 0x12D CALLDATASIZE PUSH1 0x4 PUSH2 0x6FB JUMP JUMPDEST PUSH2 0x386 JUMP JUMPDEST PUSH1 0x40 MLOAD PUSH2 0xAD SWAP2 SWAP1 PUSH2 0x740 JUMP JUMPDEST PUSH2 0x166 PUSH32 0x0 DUP2 JUMP JUMPDEST PUSH1 0x40 MLOAD PUSH1 0x1 PUSH1 0x1 PUSH1 0xA0 SHL SUB SWAP1 SWAP2 AND DUP2 MSTORE PUSH1 0x20 ADD PUSH2 0xAD JUMP JUMPDEST CALLER PUSH1 0x1 PUSH1 0x1 PUSH1 0xA0 SHL SUB PUSH32 0x0 AND EQ PUSH2 0x209 JUMPI PUSH1 0x40 MLOAD PUSH3 0x461BCD PUSH1 0xE5 SHL DUP2 MSTORE PUSH1 0x20 PUSH1 0x4 DUP3 ADD MSTORE PUSH1 0x25 PUSH1 0x24 DUP3 ADD MSTORE PUSH32 0x4C6561646572626F617264547261636B65723A2063616C6C6572206E6F742072 PUSH1 0x44 DUP3 ADD MSTORE PUSH5 0x37BABA32B9 PUSH1 0xD9 SHL PUSH1 0x64 DUP3 ADD MSTORE PUSH1 0x84 ADD JUMPDEST PUSH1 0x40 MLOAD DUP1 SWAP2 SUB SWAP1 REVERT JUMPDEST PUSH1 0x0 DUP4 GT PUSH2 0x265 JUMPI PUSH1 0x40 MLOAD PUSH3 0x461BCD PUSH1 0xE5 SHL DUP2 MSTORE PUSH1 0x20 PUSH1 0x4 DUP3 ADD MSTORE PUSH1 0x24 DUP1 DUP3 ADD MSTORE PUSH32 0x4C6561646572626F617264547261636B65723A20696E76616C6964206167656E PUSH1 0x44 DUP3 ADD MSTORE PUSH4 0x1D081A59 PUSH1 0xE2 SHL PUSH1 0x64 DUP3 ADD MSTORE PUSH1 0x84 ADD PUSH2 0x200 JUMP JUMPDEST PUSH1 0x0 DUP4 DUP2 MSTORE PUSH1 0x2 PUSH1 0x20 MSTORE PUSH1 0x40 SWAP1 KECCAK256 SLOAD PUSH1 0xFF AND PUSH2 0x2D1 JUMPI PUSH1 0x0 DUP4 DUP2 MSTORE PUSH1 0x2 PUSH1 0x20 SWAP1 DUP2 MSTORE PUSH1 0x40 DUP1 DUP4 KECCAK256 DUP1 SLOAD PUSH1 0xFF NOT AND PUSH1 0x1 SWAP1 DUP2 OR SWAP1 SWAP2 SSTORE DUP1 SLOAD DUP1 DUP3 ADD SWAP1 SWAP2 SSTORE PUSH32 0xB10E2D527612073B26EECDFD717E6A320CF44B4AFAC2B0732D9FCBE2B7FA0CF6 ADD DUP7 SWAP1 SSTORE SWAP1 DUP3 SWAP1 MSTORE SWAP1 KECCAK256 DUP4 SWAP1 SSTORE JUMPDEST PUSH1 0x0 DUP4 DUP2 MSTORE PUSH1 0x20 DUP2 SWAP1 MSTORE PUSH1 0x40 DUP2 KECCAK256 PUSH1 0x1 DUP2 ADD DUP1 SLOAD SWAP2 SWAP3 DUP6 SWAP3 PUSH2 0x2F4 SWAP1 DUP5 SWAP1 PUSH2 0x7AF JUMP JUMPDEST SWAP3 POP POP DUP2 SWAP1 SSTORE POP DUP2 DUP2 PUSH1 0x2 ADD PUSH1 0x0 DUP3 DUP3 SLOAD PUSH2 0x30F SWAP2 SWAP1 PUSH2 0x7AF JUMP JUMPDEST SWAP1 SWAP2 SSTORE POP POP PUSH1 0x1 DUP2 ADD SLOAD PUSH1 0x2 DUP3 ADD SLOAD PUSH1 0x40 MLOAD DUP7 SWAP3 PUSH32 0x15D96425C87B88CAB4760BB6CBDBFCECA228D567BC444143D106AE197C247FD3 SWAP3 PUSH2 0x357 SWAP3 SWAP2 DUP3 MSTORE PUSH1 0x20 DUP3 ADD MSTORE PUSH1 0x40 ADD SWAP1 JUMP JUMPDEST PUSH1 0x40 MLOAD DUP1 SWAP2 SUB SWAP1 LOG2 POP POP POP POP JUMP JUMPDEST PUSH1 0x1 DUP2 DUP2 SLOAD DUP2 LT PUSH2 0x375 JUMPI PUSH1 0x0 DUP1 REVERT JUMPDEST PUSH1 0x0 SWAP2 DUP3 MSTORE PUSH1 0x20 SWAP1 SWAP2 KECCAK256 ADD SLOAD SWAP1 POP DUP2 JUMP JUMPDEST PUSH1 0x1 SLOAD PUSH1 0x60 SWAP1 DUP1 DUP4 GT ISZERO PUSH2 0x398 JUMPI DUP1 SWAP3 POP JUMPDEST PUSH1 0x0 DUP2 PUSH8 0xFFFFFFFFFFFFFFFF DUP2 GT ISZERO PUSH2 0x3B3 JUMPI PUSH2 0x3B3 PUSH2 0x7C8 JUMP JUMPDEST PUSH1 0x40 MLOAD SWAP1 DUP1 DUP3 MSTORE DUP1 PUSH1 0x20 MUL PUSH1 0x20 ADD DUP3 ADD PUSH1 0x40 MSTORE DUP1 ISZERO PUSH2 0x408 JUMPI DUP2 PUSH1 0x20 ADD JUMPDEST PUSH2 0x3F5 PUSH1 0x40 MLOAD DUP1 PUSH1 0x60 ADD PUSH1 0x40 MSTORE DUP1 PUSH1 0x0 DUP2 MSTORE PUSH1 0x20 ADD PUSH1 0x0 DUP2 MSTORE PUSH1 0x20 ADD PUSH1 0x0 DUP2 MSTORE POP SWAP1 JUMP JUMPDEST DUP2 MSTORE PUSH1 0x20 ADD SWAP1 PUSH1 0x1 SWAP1 SUB SWAP1 DUP2 PUSH2 0x3D1 JUMPI SWAP1 POP JUMPDEST POP SWAP1 POP PUSH1 0x0 JUMPDEST DUP3 DUP2 LT ISZERO PUSH2 0x49E JUMPI PUSH1 0x0 DUP1 PUSH1 0x1 DUP4 DUP2 SLOAD DUP2 LT PUSH2 0x42C JUMPI PUSH2 0x42C PUSH2 0x7DE JUMP JUMPDEST SWAP1 PUSH1 0x0 MSTORE PUSH1 0x20 PUSH1 0x0 KECCAK256 ADD SLOAD DUP2 MSTORE PUSH1 0x20 ADD SWAP1 DUP2 MSTORE PUSH1 0x20 ADD PUSH1 0x0 KECCAK256 PUSH1 0x40 MLOAD DUP1 PUSH1 0x60 ADD PUSH1 0x40 MSTORE SWAP1 DUP2 PUSH1 0x0 DUP3 ADD SLOAD DUP2 MSTORE PUSH1 0x20 ADD PUSH1 0x1 DUP3 ADD SLOAD DUP2 MSTORE PUSH1 0x20 ADD PUSH1 0x2 DUP3 ADD SLOAD DUP2 MSTORE POP POP DUP3 DUP3 DUP2 MLOAD DUP2 LT PUSH2 0x480 JUMPI PUSH2 0x480 PUSH2 0x7DE JUMP JUMPDEST PUSH1 0x20 MUL PUSH1 0x20 ADD ADD DUP2 SWAP1 MSTORE POP DUP1 DUP1 PUSH2 0x496 SWAP1 PUSH2 0x7F4 JUMP JUMPDEST SWAP2 POP POP PUSH2 0x40E JUMP JUMPDEST POP PUSH1 0x0 JUMPDEST DUP3 DUP2 LT ISZERO PUSH2 0x62C JUMPI PUSH1 0x0 PUSH2 0x4B7 DUP3 PUSH1 0x1 PUSH2 0x7AF JUMP JUMPDEST SWAP1 POP JUMPDEST DUP4 DUP2 LT ISZERO PUSH2 0x619 JUMPI PUSH1 0x0 DUP4 DUP4 DUP2 MLOAD DUP2 LT PUSH2 0x4D6 JUMPI PUSH2 0x4D6 PUSH2 0x7DE JUMP JUMPDEST PUSH1 0x20 MUL PUSH1 0x20 ADD ADD MLOAD PUSH1 0x20 ADD MLOAD DUP5 DUP4 DUP2 MLOAD DUP2 LT PUSH2 0x4F4 JUMPI PUSH2 0x4F4 PUSH2 0x7DE JUMP JUMPDEST PUSH1 0x20 MUL PUSH1 0x20 ADD ADD MLOAD PUSH1 0x20 ADD MLOAD GT DUP1 PUSH2 0x589 JUMPI POP DUP4 DUP4 DUP2 MLOAD DUP2 LT PUSH2 0x519 JUMPI PUSH2 0x519 PUSH2 0x7DE JUMP JUMPDEST PUSH1 0x20 MUL PUSH1 0x20 ADD ADD MLOAD PUSH1 0x20 ADD MLOAD DUP5 DUP4 DUP2 MLOAD DUP2 LT PUSH2 0x537 JUMPI PUSH2 0x537 PUSH2 0x7DE JUMP JUMPDEST PUSH1 0x20 MUL PUSH1 0x20 ADD ADD MLOAD PUSH1 0x20 ADD MLOAD EQ DUP1 ISZERO PUSH2 0x589 JUMPI POP DUP4 DUP4 DUP2 MLOAD DUP2 LT PUSH2 0x55D JUMPI PUSH2 0x55D PUSH2 0x7DE JUMP JUMPDEST PUSH1 0x20 MUL PUSH1 0x20 ADD ADD MLOAD PUSH1 0x40 ADD MLOAD DUP5 DUP4 DUP2 MLOAD DUP2 LT PUSH2 0x57B JUMPI PUSH2 0x57B PUSH2 0x7DE JUMP JUMPDEST PUSH1 0x20 MUL PUSH1 0x20 ADD ADD MLOAD PUSH1 0x40 ADD MLOAD GT JUMPDEST SWAP1 POP DUP1 ISZERO PUSH2 0x606 JUMPI PUSH1 0x0 DUP5 DUP5 DUP2 MLOAD DUP2 LT PUSH2 0x5A5 JUMPI PUSH2 0x5A5 PUSH2 0x7DE JUMP JUMPDEST PUSH1 0x20 MUL PUSH1 0x20 ADD ADD MLOAD SWAP1 POP DUP5 DUP4 DUP2 MLOAD DUP2 LT PUSH2 0x5C1 JUMPI PUSH2 0x5C1 PUSH2 0x7DE JUMP JUMPDEST PUSH1 0x20 MUL PUSH1 0x20 ADD ADD MLOAD DUP6 DUP6 DUP2 MLOAD DUP2 LT PUSH2 0x5DB JUMPI PUSH2 0x5DB PUSH2 0x7DE JUMP JUMPDEST PUSH1 0x20 MUL PUSH1 0x20 ADD ADD DUP2 SWAP1 MSTORE POP DUP1 DUP6 DUP5 DUP2 MLOAD DUP2 LT PUSH2 0x5F9 JUMPI PUSH2 0x5F9 PUSH2 0x7DE JUMP JUMPDEST PUSH1 0x20 MUL PUSH1 0x20 ADD ADD DUP2 SWAP1 MSTORE POP POP JUMPDEST POP DUP1 PUSH2 0x611 DUP2 PUSH2 0x7F4 JUMP JUMPDEST SWAP2 POP POP PUSH2 0x4BA JUMP JUMPDEST POP DUP1 PUSH2 0x624 DUP2 PUSH2 0x7F4 JUMP JUMPDEST SWAP2 POP POP PUSH2 0x4A2 JUMP JUMPDEST POP DUP4 PUSH8 0xFFFFFFFFFFFFFFFF DUP2 GT ISZERO PUSH2 0x646 JUMPI PUSH2 0x646 PUSH2 0x7C8 JUMP JUMPDEST PUSH1 0x40 MLOAD SWAP1 DUP1 DUP3 MSTORE DUP1 PUSH1 0x20 MUL PUSH1 0x20 ADD DUP3 ADD PUSH1 0x40 MSTORE DUP1 ISZERO PUSH2 0x69B JUMPI DUP2 PUSH1 0x20 ADD JUMPDEST PUSH2 0x688 PUSH1 0x40 MLOAD DUP1 PUSH1 0x60 ADD PUSH1 0x40 MSTORE DUP1 PUSH1 0x0 DUP2 MSTORE PUSH1 0x20 ADD PUSH1 0x0 DUP2 MSTORE PUSH1 0x20 ADD PUSH1 0x0 DUP2 MSTORE POP SWAP1 JUMP JUMPDEST DUP2 MSTORE PUSH1 0x20 ADD SWAP1 PUSH1 0x1 SWAP1 SUB SWAP1 DUP2 PUSH2 0x664 JUMPI SWAP1 POP JUMPDEST POP SWAP3 POP PUSH1 0x0 JUMPDEST DUP5 DUP2 LT ISZERO PUSH2 0x6F3 JUMPI DUP2 DUP2 DUP2 MLOAD DUP2 LT PUSH2 0x6BB JUMPI PUSH2 0x6BB PUSH2 0x7DE JUMP JUMPDEST PUSH1 0x20 MUL PUSH1 0x20 ADD ADD MLOAD DUP5 DUP3 DUP2 MLOAD DUP2 LT PUSH2 0x6D5 JUMPI PUSH2 0x6D5 PUSH2 0x7DE JUMP JUMPDEST PUSH1 0x20 MUL PUSH1 0x20 ADD ADD DUP2 SWAP1 MSTORE POP DUP1 DUP1 PUSH2 0x6EB SWAP1 PUSH2 0x7F4 JUMP JUMPDEST SWAP2 POP POP PUSH2 0x6A1 JUMP JUMPDEST POP POP POP SWAP2 SWAP1 POP JUMP JUMPDEST PUSH1 0x0 PUSH1 0x20 DUP3 DUP5 SUB SLT ISZERO PUSH2 0x70D JUMPI PUSH1 0x0 DUP1 REVERT JUMPDEST POP CALLDATALOAD SWAP2 SWAP1 POP JUMP JUMPDEST PUSH1 0x0 DUP1 PUSH1 0x0 PUSH1 0x60 DUP5 DUP7 SUB SLT ISZERO PUSH2 0x729 JUMPI PUSH1 0x0 DUP1 REVERT JUMPDEST POP POP DUP2 CALLDATALOAD SWAP4 PUSH1 0x20 DUP4 ADD CALLDATALOAD SWAP4 POP PUSH1 0x40 SWAP1 SWAP3 ADD CALLDATALOAD SWAP2 SWAP1 POP JUMP JUMPDEST PUSH1 0x20 DUP1 DUP3 MSTORE DUP3 MLOAD DUP3 DUP3 ADD DUP2 SWAP1 MSTORE PUSH1 0x0 SWAP2 SWAP1 PUSH1 0x40 SWAP1 DUP2 DUP6 ADD SWAP1 DUP7 DUP5 ADD DUP6 JUMPDEST DUP3 DUP2 LT ISZERO PUSH2 0x78C JUMPI DUP2 MLOAD DUP1 MLOAD DUP6 MSTORE DUP7 DUP2 ADD MLOAD DUP8 DUP7 ADD MSTORE DUP6 ADD MLOAD DUP6 DUP6 ADD MSTORE PUSH1 0x60 SWAP1 SWAP4 ADD SWAP3 SWAP1 DUP6 ADD SWAP1 PUSH1 0x1 ADD PUSH2 0x75D JUMP JUMPDEST POP SWAP2 SWAP8 SWAP7 POP POP POP POP POP POP POP JUMP JUMPDEST PUSH4 0x4E487B71 PUSH1 0xE0 SHL PUSH1 0x0 MSTORE PUSH1 0x11 PUSH1 0x4 MSTORE PUSH1 0x24 PUSH1 0x0 REVERT JUMPDEST DUP1 DUP3 ADD DUP1 DUP3 GT ISZERO PUSH2 0x7C2 JUMPI PUSH2 0x7C2 PUSH2 0x799 JUMP JUMPDEST SWAP3 SWAP2 POP POP JUMP JUMPDEST PUSH4 0x4E487B71 PUSH1 0xE0 SHL PUSH1 0x0 MSTORE PUSH1 0x41 PUSH1 0x4 MSTORE PUSH1 0x24 PUSH1 0x0 REVERT JUMPDEST PUSH4 0x4E487B71 PUSH1 0xE0 SHL PUSH1 0x0 MSTORE PUSH1 0x32 PUSH1 0x4 MSTORE PUSH1 0x24 PUSH1 0x0 REVERT JUMPDEST PUSH1 0x0 PUSH1 0x1 DUP3 ADD PUSH2 0x806 JUMPI PUSH2 0x806 PUSH2 0x799 JUMP JUMPDEST POP PUSH1 0x1 ADD SWAP1 JUMP INVALID LOG2 PUSH5 0x6970667358 0x22 SLT KECCAK256 LOG0 RETURNDATASIZE POP 0xE2 DUP14 DUP7 0xB3 0xDF 0xAE PUSH0 0xF9 PUSH9 0xDEDE46ABC5A119E672 0xE5 0x49 0xC0 DUP10 PUSH29 0x7CCB4A9B457A64736F6C63430008140033000000000000000000000000 "},"methodIdentifiers":{"activities(uint256)":"0d1657e8","getTopAgents(uint256)":"b1e29ea4","isTracked(uint256)":"1194f9e9","paymentRouter()":"ff781bbf","recordActivity(uint256,uint256,uint256)":"6106855c","trackedAgentIds(uint256)":"9ac7f84c"}}}}}