{
  "_format": "hh-sol-artifact-1",
  "contractName": "SkillsRegistry",
  "sourceName": "contracts/SkillsRegistry.sol",
  "abi": [
    {
      "anonymous": false,
      "inputs": [
        {
          "indexed": true,
          "internalType": "uint256",
          "name": "skillId",
          "type": "uint256"
        },
        {
          "indexed": false,
          "internalType": "uint256",
          "name": "newTotalHires",
          "type": "uint256"
        }
      ],
      "name": "SkillHireCountIncremented",
      "type": "event"
    },
    {
      "anonymous": false,
      "inputs": [
        {
          "indexed": true,
          "internalType": "uint256",
          "name": "skillId",
          "type": "uint256"
        },
        {
          "indexed": true,
          "internalType": "address",
          "name": "provider",
          "type": "address"
        },
        {
          "indexed": false,
          "internalType": "string",
          "name": "name",
          "type": "string"
        },
        {
          "indexed": false,
          "internalType": "uint256",
          "name": "priceUSDC",
          "type": "uint256"
        }
      ],
      "name": "SkillRegistered",
      "type": "event"
    },
    {
      "inputs": [],
      "name": "getAllSkills",
      "outputs": [
        {
          "components": [
            {
              "internalType": "address",
              "name": "provider",
              "type": "address"
            },
            {
              "internalType": "string",
              "name": "name",
              "type": "string"
            },
            {
              "internalType": "string",
              "name": "description",
              "type": "string"
            },
            {
              "internalType": "uint256",
              "name": "priceUSDC",
              "type": "uint256"
            },
            {
              "internalType": "uint256",
              "name": "totalHires",
              "type": "uint256"
            },
            {
              "internalType": "bool",
              "name": "exists",
              "type": "bool"
            }
          ],
          "internalType": "struct SkillsRegistry.Skill[]",
          "name": "allSkills",
          "type": "tuple[]"
        }
      ],
      "stateMutability": "view",
      "type": "function"
    },
    {
      "inputs": [
        {
          "internalType": "uint256",
          "name": "skillId",
          "type": "uint256"
        }
      ],
      "name": "getSkill",
      "outputs": [
        {
          "internalType": "address",
          "name": "provider",
          "type": "address"
        },
        {
          "internalType": "string",
          "name": "name",
          "type": "string"
        },
        {
          "internalType": "uint256",
          "name": "priceUSDC",
          "type": "uint256"
        },
        {
          "internalType": "uint256",
          "name": "totalHires",
          "type": "uint256"
        }
      ],
      "stateMutability": "view",
      "type": "function"
    },
    {
      "inputs": [
        {
          "internalType": "uint256",
          "name": "skillId",
          "type": "uint256"
        }
      ],
      "name": "getSkillDescription",
      "outputs": [
        {
          "internalType": "string",
          "name": "description",
          "type": "string"
        }
      ],
      "stateMutability": "view",
      "type": "function"
    },
    {
      "inputs": [
        {
          "internalType": "uint256",
          "name": "skillId",
          "type": "uint256"
        }
      ],
      "name": "incrementHireCount",
      "outputs": [],
      "stateMutability": "nonpayable",
      "type": "function"
    },
    {
      "inputs": [
        {
          "internalType": "string",
          "name": "name",
          "type": "string"
        },
        {
          "internalType": "string",
          "name": "description",
          "type": "string"
        },
        {
          "internalType": "uint256",
          "name": "priceUSDC",
          "type": "uint256"
        }
      ],
      "name": "registerSkill",
      "outputs": [
        {
          "internalType": "uint256",
          "name": "skillId",
          "type": "uint256"
        }
      ],
      "stateMutability": "nonpayable",
      "type": "function"
    },
    {
      "inputs": [],
      "name": "skillCount",
      "outputs": [
        {
          "internalType": "uint256",
          "name": "",
          "type": "uint256"
        }
      ],
      "stateMutability": "view",
      "type": "function"
    },
    {
      "inputs": [
        {
          "internalType": "uint256",
          "name": "",
          "type": "uint256"
        }
      ],
      "name": "skills",
      "outputs": [
        {
          "internalType": "address",
          "name": "provider",
          "type": "address"
        },
        {
          "internalType": "string",
          "name": "name",
          "type": "string"
        },
        {
          "internalType": "string",
          "name": "description",
          "type": "string"
        },
        {
          "internalType": "uint256",
          "name": "priceUSDC",
          "type": "uint256"
        },
        {
          "internalType": "uint256",
          "name": "totalHires",
          "type": "uint256"
        },
        {
          "internalType": "bool",
          "name": "exists",
          "type": "bool"
        }
      ],
      "stateMutability": "view",
      "type": "function"
    }
  ],
  "bytecode": "0x608060405234801561001057600080fd5b50610ebc806100206000396000f3fe608060405234801561001057600080fd5b506004361061007d5760003560e01c8063a72b01b61161005b578063a72b01b6146100e6578063b82c1b4a14610106578063bd880fae1461010f578063ccc3bba81461013257600080fd5b806308cc13f01461008257806350d15fbe1461009757806363664263146100c5575b600080fd5b6100956100903660046109c6565b610147565b005b6100aa6100a53660046109c6565b6101da565b6040516100bc96959493929190610a25565b60405180910390f35b6100d86100d3366004610ac5565b61032e565b6040519081526020016100bc565b6100f96100f43660046109c6565b6105b3565b6040516100bc9190610b39565b6100d860015481565b61012261011d3660046109c6565b61067e565b6040516100bc9493929190610b53565b61013a610775565b6040516100bc9190610b8a565b6000818152602081905260409020600581015460ff166101825760405162461bcd60e51b815260040161017990610c46565b60405180910390fd5b60018160040160008282546101979190610c93565b9091555050600481015460405190815282907fd4d3909d887933bd23abe9c0c1acb4b66e7671ebd19766d9495c920b07debc259060200160405180910390a25050565b600060208190529081526040902080546001820180546001600160a01b03909216929161020690610cac565b80601f016020809104026020016040519081016040528092919081815260200182805461023290610cac565b801561027f5780601f106102545761010080835404028352916020019161027f565b820191906000526020600020905b81548152906001019060200180831161026257829003601f168201915b50505050509080600201805461029490610cac565b80601f01602080910402602001604051908101604052809291908181526020018280546102c090610cac565b801561030d5780601f106102e25761010080835404028352916020019161030d565b820191906000526020600020905b8154815290600101906020018083116102f057829003601f168201915b50505050600383015460048401546005909401549293909290915060ff1686565b60008461037d5760405162461bcd60e51b815260206004820152601d60248201527f536b696c6c7352656769737472793a206e616d652072657175697265640000006044820152606401610179565b826103d65760405162461bcd60e51b8152602060048201526024808201527f536b696c6c7352656769737472793a206465736372697074696f6e20726571756044820152631a5c995960e21b6064820152608401610179565b600082116104305760405162461bcd60e51b815260206004820152602160248201527f536b696c6c7352656769737472793a207072696365206d757374206265203e206044820152600360fc1b6064820152608401610179565b60016000815461043f90610ce6565b91905081905590506040518060c00160405280336001600160a01b0316815260200187878080601f016020809104026020016040519081016040528093929190818152602001838380828437600092019190915250505090825250604080516020601f88018190048102820181019092528681529181019190879087908190840183828082843760009201829052509385525050506020808301869052604080840183905260016060909401849052858352828252909120835181546001600160a01b0319166001600160a01b039091161781559083015190918201906105269082610d64565b506040820151600282019061053b9082610d64565b50606082015160038201556080820151600482015560a0909101516005909101805460ff1916911515919091179055604051339082907f9f7f0cc6c6d1b9de712e9f212e3a6836abc2fd7d0ec7da91b11d02e699a8779b906105a2908a908a908890610e24565b60405180910390a395945050505050565b600081815260208190526040902060058101546060919060ff166105e95760405162461bcd60e51b815260040161017990610c46565b8060020180546105f890610cac565b80601f016020809104026020016040519081016040528092919081815260200182805461062490610cac565b80156106715780601f1061064657610100808354040283529160200191610671565b820191906000526020600020905b81548152906001019060200180831161065457829003601f168201915b5050505050915050919050565b60008181526020819052604081206005810154606091839182919060ff166106b85760405162461bcd60e51b815260040161017990610c46565b8054600382015460048301546001840180546001600160a01b03909416939092919083906106e590610cac565b80601f016020809104026020016040519081016040528092919081815260200182805461071190610cac565b801561075e5780601f106107335761010080835404028352916020019161075e565b820191906000526020600020905b81548152906001019060200180831161074157829003601f168201915b505050505092509450945094509450509193509193565b606060015467ffffffffffffffff81111561079257610792610cff565b60405190808252806020026020018201604052801561080757816020015b6107f46040518060c0016040528060006001600160a01b03168152602001606081526020016060815260200160008152602001600081526020016000151581525090565b8152602001906001900390816107b05790505b50905060015b60015481116109c25760008181526020818152604091829020825160c0810190935280546001600160a01b03168352600181018054919284019161085090610cac565b80601f016020809104026020016040519081016040528092919081815260200182805461087c90610cac565b80156108c95780601f1061089e576101008083540402835291602001916108c9565b820191906000526020600020905b8154815290600101906020018083116108ac57829003601f168201915b505050505081526020016002820180546108e290610cac565b80601f016020809104026020016040519081016040528092919081815260200182805461090e90610cac565b801561095b5780601f106109305761010080835404028352916020019161095b565b820191906000526020600020905b81548152906001019060200180831161093e57829003601f168201915b5050509183525050600382015460208201526004820154604082015260059091015460ff16151560609091015282610994600184610e5d565b815181106109a4576109a4610e70565b602002602001018190525080806109ba90610ce6565b91505061080d565b5090565b6000602082840312156109d857600080fd5b5035919050565b6000815180845260005b81811015610a05576020818501810151868301820152016109e9565b506000602082860101526020601f19601f83011685010191505092915050565b6001600160a01b038716815260c060208201819052600090610a49908301886109df565b8281036040840152610a5b81886109df565b606084019690965250506080810192909252151560a0909101529392505050565b60008083601f840112610a8e57600080fd5b50813567ffffffffffffffff811115610aa657600080fd5b602083019150836020828501011115610abe57600080fd5b9250929050565b600080600080600060608688031215610add57600080fd5b853567ffffffffffffffff80821115610af557600080fd5b610b0189838a01610a7c565b90975095506020880135915080821115610b1a57600080fd5b50610b2788828901610a7c565b96999598509660400135949350505050565b602081526000610b4c60208301846109df565b9392505050565b6001600160a01b0385168152608060208201819052600090610b77908301866109df565b6040830194909452506060015292915050565b60006020808301818452808551808352604092508286019150828160051b87010184880160005b83811015610c3857888303603f19018552815180516001600160a01b031684528781015160c089860181905290610bea828701826109df565b9150508782015185820389870152610c0282826109df565b606084810151908801526080808501519088015260a0938401511515939096019290925250509386019390860190600101610bb1565b509098975050505050505050565b6020808252601f908201527f536b696c6c7352656769737472793a20736b696c6c206e6f7420666f756e6400604082015260600190565b634e487b7160e01b600052601160045260246000fd5b80820180821115610ca657610ca6610c7d565b92915050565b600181811c90821680610cc057607f821691505b602082108103610ce057634e487b7160e01b600052602260045260246000fd5b50919050565b600060018201610cf857610cf8610c7d565b5060010190565b634e487b7160e01b600052604160045260246000fd5b601f821115610d5f57600081815260208120601f850160051c81016020861015610d3c5750805b601f850160051c820191505b81811015610d5b57828155600101610d48565b5050505b505050565b815167ffffffffffffffff811115610d7e57610d7e610cff565b610d9281610d8c8454610cac565b84610d15565b602080601f831160018114610dc75760008415610daf5750858301515b600019600386901b1c1916600185901b178555610d5b565b600085815260208120601f198616915b82811015610df657888601518255948401946001909101908401610dd7565b5085821015610e145787850151600019600388901b60f8161c191681555b5050505050600190811b01905550565b604081528260408201528284606083013760006060848301015260006060601f19601f8601168301019050826020830152949350505050565b81810381811115610ca657610ca6610c7d565b634e487b7160e01b600052603260045260246000fdfea264697066735822122093284193176d1a1d2a924b71502b9181f95d6740d0157eb4e63555d7888ca96764736f6c63430008140033",
  "linkReferences": {},
  "deployedLinkReferences": {}
}