{
  "_format": "hh-sol-artifact-1",
  "contractName": "SkillsRegistry",
  "sourceName": "contracts/SkillsRegistry.sol",
  "abi": [
    {
      "anonymous": false,
      "inputs": [
        {
          "indexed": true,
          "internalType": "uint256",
          "name": "skillId",
          "type": "uint256"
        },
        {
          "indexed": false,
          "internalType": "uint256",
          "name": "newTotalHires",
          "type": "uint256"
        }
      ],
      "name": "SkillHireCountIncremented",
      "type": "event"
    },
    {
      "anonymous": false,
      "inputs": [
        {
          "indexed": true,
          "internalType": "uint256",
          "name": "skillId",
          "type": "uint256"
        },
        {
          "indexed": true,
          "internalType": "address",
          "name": "provider",
          "type": "address"
        },
        {
          "indexed": false,
          "internalType": "string",
          "name": "name",
          "type": "string"
        },
        {
          "indexed": false,
          "internalType": "uint256",
          "name": "priceUSDC",
          "type": "uint256"
        }
      ],
      "name": "SkillRegistered",
      "type": "event"
    },
    {
      "inputs": [
        {
          "internalType": "uint256",
          "name": "skillId",
          "type": "uint256"
        }
      ],
      "name": "getSkill",
      "outputs": [
        {
          "internalType": "address",
          "name": "provider",
          "type": "address"
        },
        {
          "internalType": "string",
          "name": "name",
          "type": "string"
        },
        {
          "internalType": "uint256",
          "name": "priceUSDC",
          "type": "uint256"
        },
        {
          "internalType": "uint256",
          "name": "totalHires",
          "type": "uint256"
        }
      ],
      "stateMutability": "view",
      "type": "function"
    },
    {
      "inputs": [
        {
          "internalType": "uint256",
          "name": "skillId",
          "type": "uint256"
        }
      ],
      "name": "getSkillDescription",
      "outputs": [
        {
          "internalType": "string",
          "name": "description",
          "type": "string"
        }
      ],
      "stateMutability": "view",
      "type": "function"
    },
    {
      "inputs": [
        {
          "internalType": "uint256",
          "name": "skillId",
          "type": "uint256"
        }
      ],
      "name": "incrementHireCount",
      "outputs": [],
      "stateMutability": "nonpayable",
      "type": "function"
    },
    {
      "inputs": [
        {
          "internalType": "string",
          "name": "name",
          "type": "string"
        },
        {
          "internalType": "string",
          "name": "description",
          "type": "string"
        },
        {
          "internalType": "uint256",
          "name": "priceUSDC",
          "type": "uint256"
        }
      ],
      "name": "registerSkill",
      "outputs": [
        {
          "internalType": "uint256",
          "name": "skillId",
          "type": "uint256"
        }
      ],
      "stateMutability": "nonpayable",
      "type": "function"
    },
    {
      "inputs": [],
      "name": "skillCount",
      "outputs": [
        {
          "internalType": "uint256",
          "name": "",
          "type": "uint256"
        }
      ],
      "stateMutability": "view",
      "type": "function"
    },
    {
      "inputs": [
        {
          "internalType": "uint256",
          "name": "",
          "type": "uint256"
        }
      ],
      "name": "skills",
      "outputs": [
        {
          "internalType": "address",
          "name": "provider",
          "type": "address"
        },
        {
          "internalType": "string",
          "name": "name",
          "type": "string"
        },
        {
          "internalType": "string",
          "name": "description",
          "type": "string"
        },
        {
          "internalType": "uint256",
          "name": "priceUSDC",
          "type": "uint256"
        },
        {
          "internalType": "uint256",
          "name": "totalHires",
          "type": "uint256"
        },
        {
          "internalType": "bool",
          "name": "exists",
          "type": "bool"
        }
      ],
      "stateMutability": "view",
      "type": "function"
    }
  ],
  "bytecode": "0x608060405234801561001057600080fd5b50610b56806100206000396000f3fe608060405234801561001057600080fd5b50600436106100625760003560e01c806308cc13f01461006757806350d15fbe1461007c57806363664263146100aa578063a72b01b6146100cb578063b82c1b4a146100eb578063bd880fae146100f4575b600080fd5b61007a610075366004610745565b610117565b005b61008f61008a366004610745565b6101aa565b6040516100a1969594939291906107a4565b60405180910390f35b6100bd6100b8366004610844565b6102fe565b6040519081526020016100a1565b6100de6100d9366004610745565b610583565b6040516100a191906108b8565b6100bd60015481565b610107610102366004610745565b61064e565b6040516100a194939291906108d2565b6000818152602081905260409020600581015460ff166101525760405162461bcd60e51b815260040161014990610909565b60405180910390fd5b60018160040160008282546101679190610956565b9091555050600481015460405190815282907fd4d3909d887933bd23abe9c0c1acb4b66e7671ebd19766d9495c920b07debc259060200160405180910390a25050565b600060208190529081526040902080546001820180546001600160a01b0390921692916101d69061096f565b80601f01602080910402602001604051908101604052809291908181526020018280546102029061096f565b801561024f5780601f106102245761010080835404028352916020019161024f565b820191906000526020600020905b81548152906001019060200180831161023257829003601f168201915b5050505050908060020180546102649061096f565b80601f01602080910402602001604051908101604052809291908181526020018280546102909061096f565b80156102dd5780601f106102b2576101008083540402835291602001916102dd565b820191906000526020600020905b8154815290600101906020018083116102c057829003601f168201915b50505050600383015460048401546005909401549293909290915060ff1686565b60008461034d5760405162461bcd60e51b815260206004820152601d60248201527f536b696c6c7352656769737472793a206e616d652072657175697265640000006044820152606401610149565b826103a65760405162461bcd60e51b8152602060048201526024808201527f536b696c6c7352656769737472793a206465736372697074696f6e20726571756044820152631a5c995960e21b6064820152608401610149565b600082116104005760405162461bcd60e51b815260206004820152602160248201527f536b696c6c7352656769737472793a207072696365206d757374206265203e206044820152600360fc1b6064820152608401610149565b60016000815461040f906109a9565b91905081905590506040518060c00160405280336001600160a01b0316815260200187878080601f016020809104026020016040519081016040528093929190818152602001838380828437600092019190915250505090825250604080516020601f88018190048102820181019092528681529181019190879087908190840183828082843760009201829052509385525050506020808301869052604080840183905260016060909401849052858352828252909120835181546001600160a01b0319166001600160a01b039091161781559083015190918201906104f69082610a27565b506040820151600282019061050b9082610a27565b50606082015160038201556080820151600482015560a0909101516005909101805460ff1916911515919091179055604051339082907f9f7f0cc6c6d1b9de712e9f212e3a6836abc2fd7d0ec7da91b11d02e699a8779b90610572908a908a908890610ae7565b60405180910390a395945050505050565b600081815260208190526040902060058101546060919060ff166105b95760405162461bcd60e51b815260040161014990610909565b8060020180546105c89061096f565b80601f01602080910402602001604051908101604052809291908181526020018280546105f49061096f565b80156106415780601f1061061657610100808354040283529160200191610641565b820191906000526020600020905b81548152906001019060200180831161062457829003601f168201915b5050505050915050919050565b60008181526020819052604081206005810154606091839182919060ff166106885760405162461bcd60e51b815260040161014990610909565b8054600382015460048301546001840180546001600160a01b03909416939092919083906106b59061096f565b80601f01602080910402602001604051908101604052809291908181526020018280546106e19061096f565b801561072e5780601f106107035761010080835404028352916020019161072e565b820191906000526020600020905b81548152906001019060200180831161071157829003601f168201915b505050505092509450945094509450509193509193565b60006020828403121561075757600080fd5b5035919050565b6000815180845260005b8181101561078457602081850181015186830182015201610768565b506000602082860101526020601f19601f83011685010191505092915050565b6001600160a01b038716815260c0602082018190526000906107c89083018861075e565b82810360408401526107da818861075e565b606084019690965250506080810192909252151560a0909101529392505050565b60008083601f84011261080d57600080fd5b50813567ffffffffffffffff81111561082557600080fd5b60208301915083602082850101111561083d57600080fd5b9250929050565b60008060008060006060868803121561085c57600080fd5b853567ffffffffffffffff8082111561087457600080fd5b61088089838a016107fb565b9097509550602088013591508082111561089957600080fd5b506108a6888289016107fb565b96999598509660400135949350505050565b6020815260006108cb602083018461075e565b9392505050565b6001600160a01b03851681526080602082018190526000906108f69083018661075e565b6040830194909452506060015292915050565b6020808252601f908201527f536b696c6c7352656769737472793a20736b696c6c206e6f7420666f756e6400604082015260600190565b634e487b7160e01b600052601160045260246000fd5b8082018082111561096957610969610940565b92915050565b600181811c9082168061098357607f821691505b6020821081036109a357634e487b7160e01b600052602260045260246000fd5b50919050565b6000600182016109bb576109bb610940565b5060010190565b634e487b7160e01b600052604160045260246000fd5b601f821115610a2257600081815260208120601f850160051c810160208610156109ff5750805b601f850160051c820191505b81811015610a1e57828155600101610a0b565b5050505b505050565b815167ffffffffffffffff811115610a4157610a416109c2565b610a5581610a4f845461096f565b846109d8565b602080601f831160018114610a8a5760008415610a725750858301515b600019600386901b1c1916600185901b178555610a1e565b600085815260208120601f198616915b82811015610ab957888601518255948401946001909101908401610a9a565b5085821015610ad75787850151600019600388901b60f8161c191681555b5050505050600190811b01905550565b604081528260408201528284606083013760006060848301015260006060601f19601f860116830101905082602083015294935050505056fea264697066735822122035593c0c5445cb7416fc8e5b6d3a35150d03a92563f36a72bf91805b33b9ef5264736f6c63430008140033",
  "linkReferences": {},
  "deployedLinkReferences": {}
}