{
  "_format": "hh-sol-artifact-1",
  "contractName": "x402PaymentRouter",
  "sourceName": "contracts/x402PaymentRouter.sol",
  "abi": [
    {
      "inputs": [
        {
          "internalType": "address",
          "name": "usdcToken",
          "type": "address"
        },
        {
          "internalType": "address",
          "name": "agentRegistryAddress",
          "type": "address"
        },
        {
          "internalType": "address",
          "name": "skillsRegistryAddress",
          "type": "address"
        },
        {
          "internalType": "address",
          "name": "leaderboardTrackerAddress",
          "type": "address"
        }
      ],
      "stateMutability": "nonpayable",
      "type": "constructor"
    },
    {
      "anonymous": false,
      "inputs": [
        {
          "indexed": true,
          "internalType": "uint256",
          "name": "receiptId",
          "type": "uint256"
        }
      ],
      "name": "SkillCompleted",
      "type": "event"
    },
    {
      "anonymous": false,
      "inputs": [
        {
          "indexed": true,
          "internalType": "uint256",
          "name": "receiptId",
          "type": "uint256"
        },
        {
          "indexed": true,
          "internalType": "uint256",
          "name": "agentId",
          "type": "uint256"
        },
        {
          "indexed": true,
          "internalType": "uint256",
          "name": "skillId",
          "type": "uint256"
        },
        {
          "indexed": false,
          "internalType": "address",
          "name": "provider",
          "type": "address"
        },
        {
          "indexed": false,
          "internalType": "uint256",
          "name": "amount",
          "type": "uint256"
        }
      ],
      "name": "SkillHired",
      "type": "event"
    },
    {
      "inputs": [],
      "name": "agentRegistry",
      "outputs": [
        {
          "internalType": "contract IAgentRegistry",
          "name": "",
          "type": "address"
        }
      ],
      "stateMutability": "view",
      "type": "function"
    },
    {
      "inputs": [
        {
          "internalType": "uint256",
          "name": "receiptId",
          "type": "uint256"
        }
      ],
      "name": "getReceipt",
      "outputs": [
        {
          "internalType": "uint256",
          "name": "agentId",
          "type": "uint256"
        },
        {
          "internalType": "uint256",
          "name": "skillId",
          "type": "uint256"
        },
        {
          "internalType": "uint256",
          "name": "amount",
          "type": "uint256"
        },
        {
          "internalType": "uint256",
          "name": "timestamp",
          "type": "uint256"
        },
        {
          "internalType": "bool",
          "name": "completed",
          "type": "bool"
        }
      ],
      "stateMutability": "view",
      "type": "function"
    },
    {
      "inputs": [
        {
          "internalType": "uint256",
          "name": "agentId",
          "type": "uint256"
        },
        {
          "internalType": "uint256",
          "name": "skillId",
          "type": "uint256"
        }
      ],
      "name": "hireSkill",
      "outputs": [
        {
          "internalType": "uint256",
          "name": "receiptId",
          "type": "uint256"
        }
      ],
      "stateMutability": "nonpayable",
      "type": "function"
    },
    {
      "inputs": [],
      "name": "leaderboardTracker",
      "outputs": [
        {
          "internalType": "contract ILeaderboardTracker",
          "name": "",
          "type": "address"
        }
      ],
      "stateMutability": "view",
      "type": "function"
    },
    {
      "inputs": [
        {
          "internalType": "uint256",
          "name": "receiptId",
          "type": "uint256"
        }
      ],
      "name": "markCompleted",
      "outputs": [],
      "stateMutability": "nonpayable",
      "type": "function"
    },
    {
      "inputs": [],
      "name": "receiptCount",
      "outputs": [
        {
          "internalType": "uint256",
          "name": "",
          "type": "uint256"
        }
      ],
      "stateMutability": "view",
      "type": "function"
    },
    {
      "inputs": [
        {
          "internalType": "uint256",
          "name": "",
          "type": "uint256"
        }
      ],
      "name": "receipts",
      "outputs": [
        {
          "internalType": "uint256",
          "name": "agentId",
          "type": "uint256"
        },
        {
          "internalType": "uint256",
          "name": "skillId",
          "type": "uint256"
        },
        {
          "internalType": "uint256",
          "name": "amount",
          "type": "uint256"
        },
        {
          "internalType": "uint256",
          "name": "timestamp",
          "type": "uint256"
        },
        {
          "internalType": "bool",
          "name": "completed",
          "type": "bool"
        }
      ],
      "stateMutability": "view",
      "type": "function"
    },
    {
      "inputs": [],
      "name": "skillsRegistry",
      "outputs": [
        {
          "internalType": "contract ISkillsRegistry",
          "name": "",
          "type": "address"
        }
      ],
      "stateMutability": "view",
      "type": "function"
    },
    {
      "inputs": [],
      "name": "usdc",
      "outputs": [
        {
          "internalType": "contract IERC20",
          "name": "",
          "type": "address"
        }
      ],
      "stateMutability": "view",
      "type": "function"
    }
  ],
  "bytecode": "0x6101006040523480156200001257600080fd5b5060405162000eca38038062000eca833981016040819052620000359162000210565b6001600160a01b038416620000915760405162461bcd60e51b815260206004820181905260248201527f783430325061796d656e74526f757465723a205553444320726571756972656460448201526064015b60405180910390fd5b6001600160a01b038316620000fc5760405162461bcd60e51b815260206004820152602a60248201527f783430325061796d656e74526f757465723a206167656e7420726567697374726044820152691e481c995c5d5a5c995960b21b606482015260840162000088565b6001600160a01b038216620001685760405162461bcd60e51b815260206004820152602b60248201527f783430325061796d656e74526f757465723a20736b696c6c732072656769737460448201526a1c9e481c995c5d5a5c995960aa1b606482015260840162000088565b6001600160a01b038116620001d05760405162461bcd60e51b815260206004820152602760248201527f783430325061796d656e74526f757465723a206c6561646572626f6172642072604482015266195c5d5a5c995960ca1b606482015260840162000088565b6001600160a01b0393841660805291831660a052821660c0521660e0526200026d565b80516001600160a01b03811681146200020b57600080fd5b919050565b600080600080608085870312156200022757600080fd5b6200023285620001f3565b93506200024260208601620001f3565b92506200025260408601620001f3565b91506200026260608601620001f3565b905092959194509250565b60805160a05160c05160e051610bfa620002d0600039600081816101af015261092d0152600081816101880152818161032b0152818161057801526108a7015260008181609d015261047601526000818161014a01526107480152610bfa6000f3fe608060405234801561001057600080fd5b50600436106100935760003560e01c80638001e9cd116100665780638001e9cd1461018357806388efbc97146101aa578063b63e6ac3146101d1578063cac5c512146101e4578063d78bb0c7146101f957600080fd5b80630d1cfcae146100985780630f7ee1ec146100dc5780633e413bee146101455780637f038f3c1461016c575b600080fd5b6100bf7f000000000000000000000000000000000000000000000000000000000000000081565b6040516001600160a01b0390911681526020015b60405180910390f35b61011b6100ea3660046109e5565b6001602081905260009182526040909120805491810154600282015460038301546004909301549192909160ff1685565b6040805195865260208601949094529284019190915260608301521515608082015260a0016100d3565b6100bf7f000000000000000000000000000000000000000000000000000000000000000081565b61017560005481565b6040519081526020016100d3565b6100bf7f000000000000000000000000000000000000000000000000000000000000000081565b6100bf7f000000000000000000000000000000000000000000000000000000000000000081565b61011b6101df3660046109e5565b61020c565b6101f76101f23660046109e5565b610279565b005b6101756102073660046109fe565b610453565b600081815260016020526040812060038101548291829182918291820361024e5760405162461bcd60e51b815260040161024590610a20565b60405180910390fd5b8054600182015460028301546003840154600490940154929a919950975091955060ff169350915050565b600081815260016020526040812060038101549091036102ab5760405162461bcd60e51b815260040161024590610a20565b600481015460ff161561030c5760405162461bcd60e51b8152602060048201526024808201527f783430325061796d656e74526f757465723a20616c726561647920636f6d706c604482015263195d195960e21b6064820152608401610245565b6001810154604051635ec407d760e11b81526000916001600160a01b037f0000000000000000000000000000000000000000000000000000000000000000169163bd880fae916103629160040190815260200190565b600060405180830381865afa15801561037f573d6000803e3d6000fd5b505050506040513d6000823e601f3d908101601f191682016040526103a79190810190610a7a565b5091925050506001600160a01b03811633146104145760405162461bcd60e51b815260206004820152602660248201527f783430325061796d656e74526f757465723a2063616c6c6572206e6f7420707260448201526537bb34b232b960d11b6064820152608401610245565b60048201805460ff1916600117905560405183907f43ab359e8607e8696df0271e813c45c9196a2a95f224515deff3d4f0d32a0b5b90600090a2505050565b604051632de5aaf760e01b81526004810183905260009081906001600160a01b037f00000000000000000000000000000000000000000000000000000000000000001690632de5aaf790602401600060405180830381865afa1580156104bd573d6000803e3d6000fd5b505050506040513d6000823e601f3d908101601f191682016040526104e59190810190610a7a565b5091925050506001600160a01b03811633146105555760405162461bcd60e51b815260206004820152602960248201527f783430325061796d656e74526f757465723a2063616c6c6572206e6f7420616760448201526832b73a1037bbb732b960b91b6064820152608401610245565b604051635ec407d760e11b81526004810184905260009081906001600160a01b037f0000000000000000000000000000000000000000000000000000000000000000169063bd880fae90602401600060405180830381865afa1580156105bf573d6000803e3d6000fd5b505050506040513d6000823e601f3d908101601f191682016040526105e79190810190610a7a565b50919350909150506001600160a01b0382166106515760405162461bcd60e51b815260206004820152602360248201527f783430325061796d656e74526f757465723a20696e76616c69642070726f76696044820152623232b960e91b6064820152608401610245565b336001600160a01b038316036106ba5760405162461bcd60e51b815260206004820152602860248201527f783430325061796d656e74526f757465723a2073656c662068697265206e6f7460448201526708185b1b1bddd95960c21b6064820152608401610245565b600081116107195760405162461bcd60e51b815260206004820152602660248201527f783430325061796d656e74526f757465723a20696e76616c696420736b696c6c60448201526520707269636560d01b6064820152608401610245565b6040516323b872dd60e01b81523360048201526001600160a01b038381166024830152604482018390526000917f0000000000000000000000000000000000000000000000000000000000000000909116906323b872dd906064016020604051808303816000875af1158015610793573d6000803e3d6000fd5b505050506040513d601f19601f820116820180604052508101906107b79190610b74565b9050806108165760405162461bcd60e51b815260206004820152602760248201527f783430325061796d656e74526f757465723a2055534443207472616e736665726044820152660819985a5b195960ca1b6064820152608401610245565b600080815461082490610b9d565b91829055506040805160a08101825289815260208082018a81528284018781524260608501908152600060808601818152888252600195869052908790209551865592519385019390935551600284015590516003830155516004918201805460ff19169115159190911790559051628cc13f60e41b81529081018890529095507f00000000000000000000000000000000000000000000000000000000000000006001600160a01b0316906308cc13f090602401600060405180830381600087803b1580156108f357600080fd5b505af1158015610907573d6000803e3d6000fd5b5050604051631841a15760e21b8152600481018a905260016024820152604481018590527f00000000000000000000000000000000000000000000000000000000000000006001600160a01b03169250636106855c9150606401600060405180830381600087803b15801561097b57600080fd5b505af115801561098f573d6000803e3d6000fd5b5050604080516001600160a01b0387168152602081018690528993508a925088917f40434ba3f2098e6a1473a91ce7d19348210e4fbe533be57927ac2126e14ccd5d910160405180910390a45050505092915050565b6000602082840312156109f757600080fd5b5035919050565b60008060408385031215610a1157600080fd5b50508035926020909101359150565b60208082526024908201527f783430325061796d656e74526f757465723a2072656365697074206e6f7420666040820152631bdd5b9960e21b606082015260800190565b634e487b7160e01b600052604160045260246000fd5b60008060008060808587031215610a9057600080fd5b84516001600160a01b0381168114610aa757600080fd5b8094505060208086015167ffffffffffffffff80821115610ac757600080fd5b818801915088601f830112610adb57600080fd5b815181811115610aed57610aed610a64565b604051601f8201601f19908116603f01168101908382118183101715610b1557610b15610a64565b816040528281528b86848701011115610b2d57600080fd5b600093505b82841015610b4f5784840186015181850187015292850192610b32565b6000928101909501919091525050506040860151606090960151949790965092505050565b600060208284031215610b8657600080fd5b81518015158114610b9657600080fd5b9392505050565b600060018201610bbd57634e487b7160e01b600052601160045260246000fd5b506001019056fea2646970667358221220ffa251e53e9de52f3c140b081a0972f9a589387a0e55f2c21ac72c101535e50d64736f6c63430008140033",
  "linkReferences": {},
  "deployedLinkReferences": {}
}