{
  "_format": "hh-sol-artifact-1",
  "contractName": "TestUSDC",
  "sourceName": "contracts/TestUSDC.sol",
  "abi": [
    {
      "inputs": [
        {
          "internalType": "address",
          "name": "initialOwner",
          "type": "address"
        },
        {
          "internalType": "uint256",
          "name": "initialSupply",
          "type": "uint256"
        }
      ],
      "stateMutability": "nonpayable",
      "type": "constructor"
    },
    {
      "anonymous": false,
      "inputs": [
        {
          "indexed": true,
          "internalType": "address",
          "name": "owner",
          "type": "address"
        },
        {
          "indexed": true,
          "internalType": "address",
          "name": "spender",
          "type": "address"
        },
        {
          "indexed": false,
          "internalType": "uint256",
          "name": "value",
          "type": "uint256"
        }
      ],
      "name": "Approval",
      "type": "event"
    },
    {
      "anonymous": false,
      "inputs": [
        {
          "indexed": true,
          "internalType": "address",
          "name": "to",
          "type": "address"
        },
        {
          "indexed": false,
          "internalType": "uint256",
          "name": "amount",
          "type": "uint256"
        }
      ],
      "name": "Mint",
      "type": "event"
    },
    {
      "anonymous": false,
      "inputs": [
        {
          "indexed": true,
          "internalType": "address",
          "name": "previousOwner",
          "type": "address"
        },
        {
          "indexed": true,
          "internalType": "address",
          "name": "newOwner",
          "type": "address"
        }
      ],
      "name": "OwnershipTransferred",
      "type": "event"
    },
    {
      "anonymous": false,
      "inputs": [
        {
          "indexed": true,
          "internalType": "address",
          "name": "from",
          "type": "address"
        },
        {
          "indexed": true,
          "internalType": "address",
          "name": "to",
          "type": "address"
        },
        {
          "indexed": false,
          "internalType": "uint256",
          "name": "value",
          "type": "uint256"
        }
      ],
      "name": "Transfer",
      "type": "event"
    },
    {
      "inputs": [
        {
          "internalType": "address",
          "name": "",
          "type": "address"
        },
        {
          "internalType": "address",
          "name": "",
          "type": "address"
        }
      ],
      "name": "allowance",
      "outputs": [
        {
          "internalType": "uint256",
          "name": "",
          "type": "uint256"
        }
      ],
      "stateMutability": "view",
      "type": "function"
    },
    {
      "inputs": [
        {
          "internalType": "address",
          "name": "spender",
          "type": "address"
        },
        {
          "internalType": "uint256",
          "name": "amount",
          "type": "uint256"
        }
      ],
      "name": "approve",
      "outputs": [
        {
          "internalType": "bool",
          "name": "success",
          "type": "bool"
        }
      ],
      "stateMutability": "nonpayable",
      "type": "function"
    },
    {
      "inputs": [
        {
          "internalType": "address",
          "name": "",
          "type": "address"
        }
      ],
      "name": "balanceOf",
      "outputs": [
        {
          "internalType": "uint256",
          "name": "",
          "type": "uint256"
        }
      ],
      "stateMutability": "view",
      "type": "function"
    },
    {
      "inputs": [],
      "name": "decimals",
      "outputs": [
        {
          "internalType": "uint8",
          "name": "",
          "type": "uint8"
        }
      ],
      "stateMutability": "view",
      "type": "function"
    },
    {
      "inputs": [
        {
          "internalType": "address",
          "name": "to",
          "type": "address"
        },
        {
          "internalType": "uint256",
          "name": "amount",
          "type": "uint256"
        }
      ],
      "name": "mint",
      "outputs": [],
      "stateMutability": "nonpayable",
      "type": "function"
    },
    {
      "inputs": [],
      "name": "name",
      "outputs": [
        {
          "internalType": "string",
          "name": "",
          "type": "string"
        }
      ],
      "stateMutability": "view",
      "type": "function"
    },
    {
      "inputs": [],
      "name": "owner",
      "outputs": [
        {
          "internalType": "address",
          "name": "",
          "type": "address"
        }
      ],
      "stateMutability": "view",
      "type": "function"
    },
    {
      "inputs": [],
      "name": "symbol",
      "outputs": [
        {
          "internalType": "string",
          "name": "",
          "type": "string"
        }
      ],
      "stateMutability": "view",
      "type": "function"
    },
    {
      "inputs": [],
      "name": "totalSupply",
      "outputs": [
        {
          "internalType": "uint256",
          "name": "",
          "type": "uint256"
        }
      ],
      "stateMutability": "view",
      "type": "function"
    },
    {
      "inputs": [
        {
          "internalType": "address",
          "name": "to",
          "type": "address"
        },
        {
          "internalType": "uint256",
          "name": "amount",
          "type": "uint256"
        }
      ],
      "name": "transfer",
      "outputs": [
        {
          "internalType": "bool",
          "name": "success",
          "type": "bool"
        }
      ],
      "stateMutability": "nonpayable",
      "type": "function"
    },
    {
      "inputs": [
        {
          "internalType": "address",
          "name": "from",
          "type": "address"
        },
        {
          "internalType": "address",
          "name": "to",
          "type": "address"
        },
        {
          "internalType": "uint256",
          "name": "amount",
          "type": "uint256"
        }
      ],
      "name": "transferFrom",
      "outputs": [
        {
          "internalType": "bool",
          "name": "success",
          "type": "bool"
        }
      ],
      "stateMutability": "nonpayable",
      "type": "function"
    },
    {
      "inputs": [
        {
          "internalType": "address",
          "name": "newOwner",
          "type": "address"
        }
      ],
      "name": "transferOwnership",
      "outputs": [],
      "stateMutability": "nonpayable",
      "type": "function"
    }
  ],
  "bytecode": "0x608060405234801561001057600080fd5b50604051610ca5380380610ca583398101604081905261002f91610212565b6001600160a01b03821661008a5760405162461bcd60e51b815260206004820152601860248201527f54657374555344433a206f776e6572207265717569726564000000000000000060448201526064015b60405180910390fd5b600180546001600160a01b0319166001600160a01b0384169081179091556040516000907f8be0079c531659141344cd1fd0a4f28419497f9722a3daafe3b4186f6b6457e0908290a36100dd82826100e4565b5050610273565b6001600160a01b03821661013a5760405162461bcd60e51b815260206004820152601c60248201527f54657374555344433a20726563697069656e74207265717569726564000000006044820152606401610081565b6000811161018a5760405162461bcd60e51b815260206004820152601c60248201527f54657374555344433a20616d6f756e74206d757374206265203e2030000000006044820152606401610081565b8060008082825461019b919061024c565b90915550506001600160a01b038216600090815260026020526040812080548392906101c890849061024c565b90915550506040518181526001600160a01b038316906000907fddf252ad1be2c89b69c2b068fc378daa952ba7f163c4a11628f55a4df523b3ef9060200160405180910390a35050565b6000806040838503121561022557600080fd5b82516001600160a01b038116811461023c57600080fd5b6020939093015192949293505050565b8082018082111561026d57634e487b7160e01b600052601160045260246000fd5b92915050565b610a23806102826000396000f3fe608060405234801561001057600080fd5b50600436106100b45760003560e01c806370a082311161007157806370a08231146101795780638da5cb5b1461019957806395d89b41146101c4578063a9059cbb146101e8578063dd62ed3e146101fb578063f2fde38b1461022657600080fd5b806306fdde03146100b9578063095ea7b3146100fd57806318160ddd1461012057806323b872dd14610137578063313ce5671461014a57806340c10f1914610164575b600080fd5b6100e76040518060400160405280600f81526020016e41474f52412054657374205553444360881b81525081565b6040516100f49190610839565b60405180910390f35b61011061010b3660046108a3565b610239565b60405190151581526020016100f4565b61012960005481565b6040519081526020016100f4565b6101106101453660046108cd565b6102fb565b610152600681565b60405160ff90911681526020016100f4565b6101776101723660046108a3565b6103e5565b005b610129610187366004610909565b60026020526000908152604090205481565b6001546101ac906001600160a01b031681565b6040516001600160a01b0390911681526020016100f4565b6100e760405180604001604052806005815260200164745553444360d81b81525081565b6101106101f63660046108a3565b6104d6565b61012961020936600461092b565b600360209081526000928352604080842090915290825290205481565b610177610234366004610909565b6104ec565b60006001600160a01b0383166102965760405162461bcd60e51b815260206004820152601a60248201527f54657374555344433a207370656e64657220726571756972656400000000000060448201526064015b60405180910390fd5b3360008181526003602090815260408083206001600160a01b03881680855290835292819020869055518581529192917f8c5be1e5ebec7d5bd14f71427d1e84f3dd0314c0f7b2291e5b200ac8c7c3b925910160405180910390a35060015b92915050565b6001600160a01b03831660009081526003602090815260408083203384529091528120548281101561036f5760405162461bcd60e51b815260206004820181905260248201527f54657374555344433a20696e73756666696369656e7420616c6c6f77616e6365604482015260640161028d565b6001600160a01b038516600081815260036020908152604080832033808552908352928190208786039081905590519081529192917f8c5be1e5ebec7d5bd14f71427d1e84f3dd0314c0f7b2291e5b200ac8c7c3b925910160405180910390a36103da8585856105f8565b506001949350505050565b6001546001600160a01b0316331461043f5760405162461bcd60e51b815260206004820152601d60248201527f54657374555344433a2063616c6c6572206973206e6f74206f776e6572000000604482015260640161028d565b6001600160a01b0382166104655760405162461bcd60e51b815260040161028d9061095e565b600081116104855760405162461bcd60e51b815260040161028d90610995565b61048f828261076b565b816001600160a01b03167f0f6798a560793a54c3bcfe86a93cde1e73087d944c0ea20544137d4121396885826040516104ca91815260200190565b60405180910390a25050565b60006104e33384846105f8565b50600192915050565b6001546001600160a01b031633146105465760405162461bcd60e51b815260206004820152601d60248201527f54657374555344433a2063616c6c6572206973206e6f74206f776e6572000000604482015260640161028d565b6001600160a01b03811661059c5760405162461bcd60e51b815260206004820152601c60248201527f54657374555344433a206e6577206f776e657220726571756972656400000000604482015260640161028d565b6001546040516001600160a01b038084169216907f8be0079c531659141344cd1fd0a4f28419497f9722a3daafe3b4186f6b6457e090600090a3600180546001600160a01b0319166001600160a01b0392909216919091179055565b6001600160a01b03831661064e5760405162461bcd60e51b815260206004820152601960248201527f54657374555344433a2073656e64657220726571756972656400000000000000604482015260640161028d565b6001600160a01b0382166106745760405162461bcd60e51b815260040161028d9061095e565b600081116106945760405162461bcd60e51b815260040161028d90610995565b6001600160a01b0383166000908152600260205260409020548111156106fc5760405162461bcd60e51b815260206004820152601e60248201527f54657374555344433a20696e73756666696369656e742062616c616e63650000604482015260640161028d565b6001600160a01b03808416600081815260026020526040808220805486900390559285168082529083902080548501905591517fddf252ad1be2c89b69c2b068fc378daa952ba7f163c4a11628f55a4df523b3ef9061075e9085815260200190565b60405180910390a3505050565b6001600160a01b0382166107915760405162461bcd60e51b815260040161028d9061095e565b600081116107b15760405162461bcd60e51b815260040161028d90610995565b806000808282546107c291906109cc565b90915550506001600160a01b038216600090815260026020526040812080548392906107ef9084906109cc565b90915550506040518181526001600160a01b038316906000907fddf252ad1be2c89b69c2b068fc378daa952ba7f163c4a11628f55a4df523b3ef9060200160405180910390a35050565b600060208083528351808285015260005b818110156108665785810183015185820160400152820161084a565b506000604082860101526040601f19601f8301168501019250505092915050565b80356001600160a01b038116811461089e57600080fd5b919050565b600080604083850312156108b657600080fd5b6108bf83610887565b946020939093013593505050565b6000806000606084860312156108e257600080fd5b6108eb84610887565b92506108f960208501610887565b9150604084013590509250925092565b60006020828403121561091b57600080fd5b61092482610887565b9392505050565b6000806040838503121561093e57600080fd5b61094783610887565b915061095560208401610887565b90509250929050565b6020808252601c908201527f54657374555344433a20726563697069656e7420726571756972656400000000604082015260600190565b6020808252601c908201527f54657374555344433a20616d6f756e74206d757374206265203e203000000000604082015260600190565b808201808211156102f557634e487b7160e01b600052601160045260246000fdfea26469706673582212208e0747cfef994b2fb77dabe6e80f61353e9ff10fed94a2f48c4a80127d8d25e464736f6c63430008140033",
  "linkReferences": {},
  "deployedLinkReferences": {}
}