{
  "_format": "hh-sol-artifact-1",
  "contractName": "AgentRegistry",
  "sourceName": "contracts/AgentRegistry.sol",
  "abi": [
    {
      "anonymous": false,
      "inputs": [
        {
          "indexed": true,
          "internalType": "uint256",
          "name": "agentId",
          "type": "uint256"
        },
        {
          "indexed": false,
          "internalType": "uint256",
          "name": "amount",
          "type": "uint256"
        },
        {
          "indexed": false,
          "internalType": "uint256",
          "name": "newTotalEarned",
          "type": "uint256"
        }
      ],
      "name": "AgentEarningsRecorded",
      "type": "event"
    },
    {
      "anonymous": false,
      "inputs": [
        {
          "indexed": true,
          "internalType": "uint256",
          "name": "agentId",
          "type": "uint256"
        },
        {
          "indexed": true,
          "internalType": "address",
          "name": "owner",
          "type": "address"
        },
        {
          "indexed": false,
          "internalType": "string",
          "name": "name",
          "type": "string"
        }
      ],
      "name": "AgentRegistered",
      "type": "event"
    },
    {
      "anonymous": false,
      "inputs": [
        {
          "indexed": true,
          "internalType": "uint256",
          "name": "agentId",
          "type": "uint256"
        },
        {
          "indexed": false,
          "internalType": "uint256",
          "name": "newTotalTxns",
          "type": "uint256"
        }
      ],
      "name": "AgentTxCountIncremented",
      "type": "event"
    },
    {
      "inputs": [],
      "name": "agentCount",
      "outputs": [
        {
          "internalType": "uint256",
          "name": "",
          "type": "uint256"
        }
      ],
      "stateMutability": "view",
      "type": "function"
    },
    {
      "inputs": [
        {
          "internalType": "uint256",
          "name": "",
          "type": "uint256"
        }
      ],
      "name": "agents",
      "outputs": [
        {
          "internalType": "address",
          "name": "owner",
          "type": "address"
        },
        {
          "internalType": "string",
          "name": "name",
          "type": "string"
        },
        {
          "internalType": "uint256",
          "name": "totalTxns",
          "type": "uint256"
        },
        {
          "internalType": "uint256",
          "name": "totalEarned",
          "type": "uint256"
        },
        {
          "internalType": "bool",
          "name": "exists",
          "type": "bool"
        }
      ],
      "stateMutability": "view",
      "type": "function"
    },
    {
      "inputs": [
        {
          "internalType": "uint256",
          "name": "agentId",
          "type": "uint256"
        }
      ],
      "name": "getAgent",
      "outputs": [
        {
          "internalType": "address",
          "name": "owner",
          "type": "address"
        },
        {
          "internalType": "string",
          "name": "name",
          "type": "string"
        },
        {
          "internalType": "uint256",
          "name": "totalTxns",
          "type": "uint256"
        },
        {
          "internalType": "uint256",
          "name": "totalEarned",
          "type": "uint256"
        }
      ],
      "stateMutability": "view",
      "type": "function"
    },
    {
      "inputs": [
        {
          "internalType": "uint256",
          "name": "agentId",
          "type": "uint256"
        }
      ],
      "name": "incrementTxCount",
      "outputs": [],
      "stateMutability": "nonpayable",
      "type": "function"
    },
    {
      "inputs": [
        {
          "internalType": "address",
          "name": "",
          "type": "address"
        }
      ],
      "name": "ownerToAgentId",
      "outputs": [
        {
          "internalType": "uint256",
          "name": "",
          "type": "uint256"
        }
      ],
      "stateMutability": "view",
      "type": "function"
    },
    {
      "inputs": [
        {
          "internalType": "uint256",
          "name": "agentId",
          "type": "uint256"
        },
        {
          "internalType": "uint256",
          "name": "amount",
          "type": "uint256"
        }
      ],
      "name": "recordEarnings",
      "outputs": [],
      "stateMutability": "nonpayable",
      "type": "function"
    },
    {
      "inputs": [
        {
          "internalType": "string",
          "name": "name",
          "type": "string"
        }
      ],
      "name": "registerAgent",
      "outputs": [
        {
          "internalType": "uint256",
          "name": "agentId",
          "type": "uint256"
        }
      ],
      "stateMutability": "nonpayable",
      "type": "function"
    }
  ],
  "bytecode": "0x608060405234801561001057600080fd5b50610aec806100206000396000f3fe608060405234801561001057600080fd5b506004361061007d5760003560e01c8063513856c81161005b578063513856c8146100e0578063700e8ec214610104578063b7dc128414610117578063e46d717f1461012057600080fd5b80632d2a9585146100825780632de5aaf7146100a857806331b7f705146100cb575b600080fd5b6100956100903660046106c7565b610140565b6040519081526020015b60405180910390f35b6100bb6100b6366004610739565b61033e565b60405161009f9493929190610798565b6100de6100d9366004610739565b610435565b005b6100f36100ee366004610739565b6104e8565b60405161009f9594939291906107cf565b6100de610112366004610812565b6105ae565b61009560025481565b61009561012e366004610834565b60016020526000908152604090205481565b6000816101945760405162461bcd60e51b815260206004820152601c60248201527f4167656e7452656769737472793a206e616d652072657175697265640000000060448201526064015b60405180910390fd5b33600090815260016020526040902054156102015760405162461bcd60e51b815260206004820152602760248201527f4167656e7452656769737472793a206f776e657220616c7265616479207265676044820152661a5cdd195c995960ca1b606482015260840161018b565b6002600081546102109061087a565b91905081905590506040518060a00160405280336001600160a01b0316815260200184848080601f01602080910402602001604051908101604052809392919081815260200183838082843760009201829052509385525050506020808301829052604080840183905260016060909401849052858352828252909120835181546001600160a01b0319166001600160a01b039091161781559083015190918201906102bc9082610932565b506040828101516002830155606083015160038301556080909201516004909101805460ff19169115159190911790553360008181526001602052829020839055905182907f0d063c6022bff16d09991a9f91882ffa112f5fb2529136f65eb4c77bbd047e439061033090879087906109f2565b60405180910390a392915050565b60008181526020819052604081206004810154606091839182919060ff166103785760405162461bcd60e51b815260040161018b90610a21565b8054600282015460038301546001840180546001600160a01b03909416939092919083906103a5906108a9565b80601f01602080910402602001604051908101604052809291908181526020018280546103d1906108a9565b801561041e5780601f106103f35761010080835404028352916020019161041e565b820191906000526020600020905b81548152906001019060200180831161040157829003601f168201915b505050505092509450945094509450509193509193565b6000818152602081905260409020600481015460ff166104675760405162461bcd60e51b815260040161018b90610a21565b80546001600160a01b031633146104905760405162461bcd60e51b815260040161018b90610a58565b60018160020160008282546104a59190610a9d565b9091555050600281015460405190815282907ff92a37853d3294e146706347ba50034be205ba675b02e981362a80070aace02c9060200160405180910390a25050565b600060208190529081526040902080546001820180546001600160a01b039092169291610514906108a9565b80601f0160208091040260200160405190810160405280929190818152602001828054610540906108a9565b801561058d5780601f106105625761010080835404028352916020019161058d565b820191906000526020600020905b81548152906001019060200180831161057057829003601f168201915b50505050600283015460038401546004909401549293909290915060ff1685565b6000828152602081905260409020600481015460ff166105e05760405162461bcd60e51b815260040161018b90610a21565b80546001600160a01b031633146106095760405162461bcd60e51b815260040161018b90610a58565b600082116106635760405162461bcd60e51b815260206004820152602160248201527f4167656e7452656769737472793a20616d6f756e74206d757374206265203e206044820152600360fc1b606482015260840161018b565b818160030160008282546106779190610a9d565b9091555050600381015460405184917f68798a48c2ad4cc4b1021d3e3646432639bf7e8d67d331cc3665ed1971fc9272916106ba91868252602082015260400190565b60405180910390a2505050565b600080602083850312156106da57600080fd5b823567ffffffffffffffff808211156106f257600080fd5b818501915085601f83011261070657600080fd5b81358181111561071557600080fd5b86602082850101111561072757600080fd5b60209290920196919550909350505050565b60006020828403121561074b57600080fd5b5035919050565b6000815180845260005b818110156107785760208185018101518683018201520161075c565b506000602082860101526020601f19601f83011685010191505092915050565b6001600160a01b03851681526080602082018190526000906107bc90830186610752565b6040830194909452506060015292915050565b6001600160a01b038616815260a0602082018190526000906107f390830187610752565b6040830195909552506060810192909252151560809091015292915050565b6000806040838503121561082557600080fd5b50508035926020909101359150565b60006020828403121561084657600080fd5b81356001600160a01b038116811461085d57600080fd5b9392505050565b634e487b7160e01b600052601160045260246000fd5b60006001820161088c5761088c610864565b5060010190565b634e487b7160e01b600052604160045260246000fd5b600181811c908216806108bd57607f821691505b6020821081036108dd57634e487b7160e01b600052602260045260246000fd5b50919050565b601f82111561092d57600081815260208120601f850160051c8101602086101561090a5750805b601f850160051c820191505b8181101561092957828155600101610916565b5050505b505050565b815167ffffffffffffffff81111561094c5761094c610893565b6109608161095a84546108a9565b846108e3565b602080601f831160018114610995576000841561097d5750858301515b600019600386901b1c1916600185901b178555610929565b600085815260208120601f198616915b828110156109c4578886015182559484019460019091019084016109a5565b50858210156109e25787850151600019600388901b60f8161c191681555b5050505050600190811b01905550565b60208152816020820152818360408301376000818301604090810191909152601f909201601f19160101919050565b6020808252601e908201527f4167656e7452656769737472793a206167656e74206e6f7420666f756e640000604082015260600190565b60208082526025908201527f4167656e7452656769737472793a2063616c6c6572206e6f74206167656e742060408201526437bbb732b960d91b606082015260800190565b80820180821115610ab057610ab0610864565b9291505056fea2646970667358221220fa2bcb2e99db4b9a6ebb647df956f5894901658e9a3eb1c0b41739a44bccc37f64736f6c63430008140033",
  "linkReferences": {},
  "deployedLinkReferences": {}
}