{
  "_format": "hh-sol-artifact-1",
  "contractName": "AgentRegistry",
  "sourceName": "contracts/AgentRegistry.sol",
  "abi": [
    {
      "anonymous": false,
      "inputs": [
        {
          "indexed": true,
          "internalType": "uint256",
          "name": "agentId",
          "type": "uint256"
        },
        {
          "indexed": false,
          "internalType": "uint256",
          "name": "amount",
          "type": "uint256"
        },
        {
          "indexed": false,
          "internalType": "uint256",
          "name": "newTotalEarned",
          "type": "uint256"
        }
      ],
      "name": "AgentEarningsRecorded",
      "type": "event"
    },
    {
      "anonymous": false,
      "inputs": [
        {
          "indexed": true,
          "internalType": "uint256",
          "name": "agentId",
          "type": "uint256"
        },
        {
          "indexed": true,
          "internalType": "address",
          "name": "owner",
          "type": "address"
        },
        {
          "indexed": false,
          "internalType": "string",
          "name": "name",
          "type": "string"
        }
      ],
      "name": "AgentRegistered",
      "type": "event"
    },
    {
      "anonymous": false,
      "inputs": [
        {
          "indexed": true,
          "internalType": "uint256",
          "name": "agentId",
          "type": "uint256"
        },
        {
          "indexed": false,
          "internalType": "uint256",
          "name": "newTotalTxns",
          "type": "uint256"
        }
      ],
      "name": "AgentTxCountIncremented",
      "type": "event"
    },
    {
      "inputs": [],
      "name": "agentCount",
      "outputs": [
        {
          "internalType": "uint256",
          "name": "",
          "type": "uint256"
        }
      ],
      "stateMutability": "view",
      "type": "function"
    },
    {
      "inputs": [
        {
          "internalType": "uint256",
          "name": "",
          "type": "uint256"
        }
      ],
      "name": "agents",
      "outputs": [
        {
          "internalType": "address",
          "name": "owner",
          "type": "address"
        },
        {
          "internalType": "string",
          "name": "name",
          "type": "string"
        },
        {
          "internalType": "uint256",
          "name": "totalTxns",
          "type": "uint256"
        },
        {
          "internalType": "uint256",
          "name": "totalEarned",
          "type": "uint256"
        },
        {
          "internalType": "bool",
          "name": "exists",
          "type": "bool"
        }
      ],
      "stateMutability": "view",
      "type": "function"
    },
    {
      "inputs": [
        {
          "internalType": "uint256",
          "name": "agentId",
          "type": "uint256"
        }
      ],
      "name": "getAgent",
      "outputs": [
        {
          "internalType": "address",
          "name": "owner",
          "type": "address"
        },
        {
          "internalType": "string",
          "name": "name",
          "type": "string"
        },
        {
          "internalType": "uint256",
          "name": "totalTxns",
          "type": "uint256"
        },
        {
          "internalType": "uint256",
          "name": "totalEarned",
          "type": "uint256"
        }
      ],
      "stateMutability": "view",
      "type": "function"
    },
    {
      "inputs": [],
      "name": "getAllAgents",
      "outputs": [
        {
          "components": [
            {
              "internalType": "address",
              "name": "owner",
              "type": "address"
            },
            {
              "internalType": "string",
              "name": "name",
              "type": "string"
            },
            {
              "internalType": "uint256",
              "name": "totalTxns",
              "type": "uint256"
            },
            {
              "internalType": "uint256",
              "name": "totalEarned",
              "type": "uint256"
            },
            {
              "internalType": "bool",
              "name": "exists",
              "type": "bool"
            }
          ],
          "internalType": "struct AgentRegistry.Agent[]",
          "name": "allAgents",
          "type": "tuple[]"
        }
      ],
      "stateMutability": "view",
      "type": "function"
    },
    {
      "inputs": [
        {
          "internalType": "uint256",
          "name": "agentId",
          "type": "uint256"
        }
      ],
      "name": "incrementTxCount",
      "outputs": [],
      "stateMutability": "nonpayable",
      "type": "function"
    },
    {
      "inputs": [
        {
          "internalType": "address",
          "name": "",
          "type": "address"
        }
      ],
      "name": "ownerToAgentId",
      "outputs": [
        {
          "internalType": "uint256",
          "name": "",
          "type": "uint256"
        }
      ],
      "stateMutability": "view",
      "type": "function"
    },
    {
      "inputs": [
        {
          "internalType": "uint256",
          "name": "agentId",
          "type": "uint256"
        },
        {
          "internalType": "uint256",
          "name": "amount",
          "type": "uint256"
        }
      ],
      "name": "recordEarnings",
      "outputs": [],
      "stateMutability": "nonpayable",
      "type": "function"
    },
    {
      "inputs": [
        {
          "internalType": "string",
          "name": "name",
          "type": "string"
        }
      ],
      "name": "registerAgent",
      "outputs": [
        {
          "internalType": "uint256",
          "name": "agentId",
          "type": "uint256"
        }
      ],
      "stateMutability": "nonpayable",
      "type": "function"
    }
  ],
  "bytecode": "0x608060405234801561001057600080fd5b50610d8f806100206000396000f3fe608060405234801561001057600080fd5b50600436106100885760003560e01c8063700e8ec21161005b578063700e8ec21461010f578063860e4ac614610122578063b7dc128414610137578063e46d717f1461014057600080fd5b80632d2a95851461008d5780632de5aaf7146100b357806331b7f705146100d6578063513856c8146100eb575b600080fd5b6100a061009b36600461089f565b610160565b6040519081526020015b60405180910390f35b6100c66100c1366004610911565b61035e565b6040516100aa9493929190610970565b6100e96100e4366004610911565b610455565b005b6100fe6100f9366004610911565b610508565b6040516100aa9594939291906109a7565b6100e961011d3660046109ea565b6105ce565b61012a6106e7565b6040516100aa9190610a0c565b6100a060025481565b6100a061014e366004610aae565b60016020526000908152604090205481565b6000816101b45760405162461bcd60e51b815260206004820152601c60248201527f4167656e7452656769737472793a206e616d652072657175697265640000000060448201526064015b60405180910390fd5b33600090815260016020526040902054156102215760405162461bcd60e51b815260206004820152602760248201527f4167656e7452656769737472793a206f776e657220616c7265616479207265676044820152661a5cdd195c995960ca1b60648201526084016101ab565b60026000815461023090610af4565b91905081905590506040518060a00160405280336001600160a01b0316815260200184848080601f01602080910402602001604051908101604052809392919081815260200183838082843760009201829052509385525050506020808301829052604080840183905260016060909401849052858352828252909120835181546001600160a01b0319166001600160a01b039091161781559083015190918201906102dc9082610bac565b506040828101516002830155606083015160038301556080909201516004909101805460ff19169115159190911790553360008181526001602052829020839055905182907f0d063c6022bff16d09991a9f91882ffa112f5fb2529136f65eb4c77bbd047e43906103509087908790610c6c565b60405180910390a392915050565b60008181526020819052604081206004810154606091839182919060ff166103985760405162461bcd60e51b81526004016101ab90610c9b565b8054600282015460038301546001840180546001600160a01b03909416939092919083906103c590610b23565b80601f01602080910402602001604051908101604052809291908181526020018280546103f190610b23565b801561043e5780601f106104135761010080835404028352916020019161043e565b820191906000526020600020905b81548152906001019060200180831161042157829003601f168201915b505050505092509450945094509450509193509193565b6000818152602081905260409020600481015460ff166104875760405162461bcd60e51b81526004016101ab90610c9b565b80546001600160a01b031633146104b05760405162461bcd60e51b81526004016101ab90610cd2565b60018160020160008282546104c59190610d17565b9091555050600281015460405190815282907ff92a37853d3294e146706347ba50034be205ba675b02e981362a80070aace02c9060200160405180910390a25050565b600060208190529081526040902080546001820180546001600160a01b03909216929161053490610b23565b80601f016020809104026020016040519081016040528092919081815260200182805461056090610b23565b80156105ad5780601f10610582576101008083540402835291602001916105ad565b820191906000526020600020905b81548152906001019060200180831161059057829003601f168201915b50505050600283015460038401546004909401549293909290915060ff1685565b6000828152602081905260409020600481015460ff166106005760405162461bcd60e51b81526004016101ab90610c9b565b80546001600160a01b031633146106295760405162461bcd60e51b81526004016101ab90610cd2565b600082116106835760405162461bcd60e51b815260206004820152602160248201527f4167656e7452656769737472793a20616d6f756e74206d757374206265203e206044820152600360fc1b60648201526084016101ab565b818160030160008282546106979190610d17565b9091555050600381015460405184917f68798a48c2ad4cc4b1021d3e3646432639bf7e8d67d331cc3665ed1971fc9272916106da91868252602082015260400190565b60405180910390a2505050565b606060025467ffffffffffffffff81111561070457610704610b0d565b60405190808252806020026020018201604052801561077257816020015b61075f6040518060a0016040528060006001600160a01b031681526020016060815260200160008152602001600081526020016000151581525090565b8152602001906001900390816107225790505b50905060015b600254811161089b5760008181526020818152604091829020825160a0810190935280546001600160a01b0316835260018101805491928401916107bb90610b23565b80601f01602080910402602001604051908101604052809291908181526020018280546107e790610b23565b80156108345780601f1061080957610100808354040283529160200191610834565b820191906000526020600020905b81548152906001019060200180831161081757829003601f168201915b5050509183525050600282015460208201526003820154604082015260049091015460ff1615156060909101528261086d600184610d30565b8151811061087d5761087d610d43565b6020026020010181905250808061089390610af4565b915050610778565b5090565b600080602083850312156108b257600080fd5b823567ffffffffffffffff808211156108ca57600080fd5b818501915085601f8301126108de57600080fd5b8135818111156108ed57600080fd5b8660208285010111156108ff57600080fd5b60209290920196919550909350505050565b60006020828403121561092357600080fd5b5035919050565b6000815180845260005b8181101561095057602081850181015186830182015201610934565b506000602082860101526020601f19601f83011685010191505092915050565b6001600160a01b03851681526080602082018190526000906109949083018661092a565b6040830194909452506060015292915050565b6001600160a01b038616815260a0602082018190526000906109cb9083018761092a565b6040830195909552506060810192909252151560809091015292915050565b600080604083850312156109fd57600080fd5b50508035926020909101359150565b60006020808301818452808551808352604092508286019150828160051b87010184880160005b83811015610aa057888303603f19018552815180516001600160a01b031684528781015160a089860181905290610a6c8287018261092a565b838a0151878b0152606080850151908801526080938401511515939096019290925250509386019390860190600101610a33565b509098975050505050505050565b600060208284031215610ac057600080fd5b81356001600160a01b0381168114610ad757600080fd5b9392505050565b634e487b7160e01b600052601160045260246000fd5b600060018201610b0657610b06610ade565b5060010190565b634e487b7160e01b600052604160045260246000fd5b600181811c90821680610b3757607f821691505b602082108103610b5757634e487b7160e01b600052602260045260246000fd5b50919050565b601f821115610ba757600081815260208120601f850160051c81016020861015610b845750805b601f850160051c820191505b81811015610ba357828155600101610b90565b5050505b505050565b815167ffffffffffffffff811115610bc657610bc6610b0d565b610bda81610bd48454610b23565b84610b5d565b602080601f831160018114610c0f5760008415610bf75750858301515b600019600386901b1c1916600185901b178555610ba3565b600085815260208120601f198616915b82811015610c3e57888601518255948401946001909101908401610c1f565b5085821015610c5c5787850151600019600388901b60f8161c191681555b5050505050600190811b01905550565b60208152816020820152818360408301376000818301604090810191909152601f909201601f19160101919050565b6020808252601e908201527f4167656e7452656769737472793a206167656e74206e6f7420666f756e640000604082015260600190565b60208082526025908201527f4167656e7452656769737472793a2063616c6c6572206e6f74206167656e742060408201526437bbb732b960d91b606082015260800190565b80820180821115610d2a57610d2a610ade565b92915050565b81810381811115610d2a57610d2a610ade565b634e487b7160e01b600052603260045260246000fdfea2646970667358221220030fdfcd73884f6fd362bba389ded268c2cd839a3ac5e6fcf14e228c401a53a364736f6c63430008140033",
  "linkReferences": {},
  "deployedLinkReferences": {}
}